{
  "address": "0xe7f1725E7734CE288F8367e1Bb143E90bb3F0512",
  "abi": [
    {
      "anonymous": false,
      "inputs": [
        {
          "indexed": true,
          "internalType": "address",
          "name": "identity",
          "type": "address"
        },
        {
          "indexed": false,
          "internalType": "bytes32",
          "name": "name",
          "type": "bytes32"
        },
        {
          "indexed": false,
          "internalType": "bytes",
          "name": "value",
          "type": "bytes"
        },
        {
          "indexed": false,
          "internalType": "uint256",
          "name": "validTo",
          "type": "uint256"
        },
        {
          "indexed": false,
          "internalType": "uint256",
          "name": "previousChange",
          "type": "uint256"
        }
      ],
      "name": "DIDAttributeChanged",
      "type": "event"
    },
    {
      "anonymous": false,
      "inputs": [
        {
          "indexed": true,
          "internalType": "address",
          "name": "identity",
          "type": "address"
        },
        {
          "indexed": false,
          "internalType": "bytes32",
          "name": "delegateType",
          "type": "bytes32"
        },
        {
          "indexed": false,
          "internalType": "address",
          "name": "delegate",
          "type": "address"
        },
        {
          "indexed": false,
          "internalType": "uint256",
          "name": "validTo",
          "type": "uint256"
        },
        {
          "indexed": false,
          "internalType": "uint256",
          "name": "previousChange",
          "type": "uint256"
        }
      ],
      "name": "DIDDelegateChanged",
      "type": "event"
    },
    {
      "anonymous": false,
      "inputs": [
        {
          "indexed": true,
          "internalType": "address",
          "name": "identity",
          "type": "address"
        },
        {
          "indexed": false,
          "internalType": "address",
          "name": "owner",
          "type": "address"
        },
        {
          "indexed": false,
          "internalType": "uint256",
          "name": "previousChange",
          "type": "uint256"
        }
      ],
      "name": "DIDOwnerChanged",
      "type": "event"
    },
    {
      "inputs": [
        {
          "internalType": "address",
          "name": "identity",
          "type": "address"
        },
        {
          "internalType": "bytes32",
          "name": "delegateType",
          "type": "bytes32"
        },
        {
          "internalType": "address",
          "name": "delegate",
          "type": "address"
        },
        {
          "internalType": "uint256",
          "name": "validity",
          "type": "uint256"
        }
      ],
      "name": "addDelegate",
      "outputs": [],
      "stateMutability": "nonpayable",
      "type": "function"
    },
    {
      "inputs": [
        {
          "internalType": "address",
          "name": "identity",
          "type": "address"
        },
        {
          "internalType": "uint8",
          "name": "sigV",
          "type": "uint8"
        },
        {
          "internalType": "bytes32",
          "name": "sigR",
          "type": "bytes32"
        },
        {
          "internalType": "bytes32",
          "name": "sigS",
          "type": "bytes32"
        },
        {
          "internalType": "bytes32",
          "name": "delegateType",
          "type": "bytes32"
        },
        {
          "internalType": "address",
          "name": "delegate",
          "type": "address"
        },
        {
          "internalType": "uint256",
          "name": "validity",
          "type": "uint256"
        }
      ],
      "name": "addDelegateSigned",
      "outputs": [],
      "stateMutability": "nonpayable",
      "type": "function"
    },
    {
      "inputs": [
        {
          "internalType": "address",
          "name": "identity",
          "type": "address"
        },
        {
          "internalType": "address",
          "name": "newOwner",
          "type": "address"
        }
      ],
      "name": "changeOwner",
      "outputs": [],
      "stateMutability": "nonpayable",
      "type": "function"
    },
    {
      "inputs": [
        {
          "internalType": "address",
          "name": "identity",
          "type": "address"
        },
        {
          "internalType": "uint8",
          "name": "sigV",
          "type": "uint8"
        },
        {
          "internalType": "bytes32",
          "name": "sigR",
          "type": "bytes32"
        },
        {
          "internalType": "bytes32",
          "name": "sigS",
          "type": "bytes32"
        },
        {
          "internalType": "address",
          "name": "newOwner",
          "type": "address"
        }
      ],
      "name": "changeOwnerSigned",
      "outputs": [],
      "stateMutability": "nonpayable",
      "type": "function"
    },
    {
      "inputs": [
        {
          "internalType": "address",
          "name": "",
          "type": "address"
        }
      ],
      "name": "changed",
      "outputs": [
        {
          "internalType": "uint256",
          "name": "",
          "type": "uint256"
        }
      ],
      "stateMutability": "view",
      "type": "function"
    },
    {
      "inputs": [
        {
          "internalType": "address",
          "name": "",
          "type": "address"
        },
        {
          "internalType": "bytes32",
          "name": "",
          "type": "bytes32"
        },
        {
          "internalType": "address",
          "name": "",
          "type": "address"
        }
      ],
      "name": "delegates",
      "outputs": [
        {
          "internalType": "uint256",
          "name": "",
          "type": "uint256"
        }
      ],
      "stateMutability": "view",
      "type": "function"
    },
    {
      "inputs": [
        {
          "internalType": "address",
          "name": "identity",
          "type": "address"
        }
      ],
      "name": "identityOwner",
      "outputs": [
        {
          "internalType": "address",
          "name": "",
          "type": "address"
        }
      ],
      "stateMutability": "view",
      "type": "function"
    },
    {
      "inputs": [
        {
          "internalType": "address",
          "name": "",
          "type": "address"
        }
      ],
      "name": "nonce",
      "outputs": [
        {
          "internalType": "uint256",
          "name": "",
          "type": "uint256"
        }
      ],
      "stateMutability": "view",
      "type": "function"
    },
    {
      "inputs": [
        {
          "internalType": "address",
          "name": "",
          "type": "address"
        }
      ],
      "name": "owners",
      "outputs": [
        {
          "internalType": "address",
          "name": "",
          "type": "address"
        }
      ],
      "stateMutability": "view",
      "type": "function"
    },
    {
      "inputs": [
        {
          "internalType": "address",
          "name": "identity",
          "type": "address"
        },
        {
          "internalType": "bytes32",
          "name": "name",
          "type": "bytes32"
        },
        {
          "internalType": "bytes",
          "name": "value",
          "type": "bytes"
        }
      ],
      "name": "revokeAttribute",
      "outputs": [],
      "stateMutability": "nonpayable",
      "type": "function"
    },
    {
      "inputs": [
        {
          "internalType": "address",
          "name": "identity",
          "type": "address"
        },
        {
          "internalType": "uint8",
          "name": "sigV",
          "type": "uint8"
        },
        {
          "internalType": "bytes32",
          "name": "sigR",
          "type": "bytes32"
        },
        {
          "internalType": "bytes32",
          "name": "sigS",
          "type": "bytes32"
        },
        {
          "internalType": "bytes32",
          "name": "name",
          "type": "bytes32"
        },
        {
          "internalType": "bytes",
          "name": "value",
          "type": "bytes"
        }
      ],
      "name": "revokeAttributeSigned",
      "outputs": [],
      "stateMutability": "nonpayable",
      "type": "function"
    },
    {
      "inputs": [
        {
          "internalType": "address",
          "name": "identity",
          "type": "address"
        },
        {
          "internalType": "bytes32",
          "name": "delegateType",
          "type": "bytes32"
        },
        {
          "internalType": "address",
          "name": "delegate",
          "type": "address"
        }
      ],
      "name": "revokeDelegate",
      "outputs": [],
      "stateMutability": "nonpayable",
      "type": "function"
    },
    {
      "inputs": [
        {
          "internalType": "address",
          "name": "identity",
          "type": "address"
        },
        {
          "internalType": "uint8",
          "name": "sigV",
          "type": "uint8"
        },
        {
          "internalType": "bytes32",
          "name": "sigR",
          "type": "bytes32"
        },
        {
          "internalType": "bytes32",
          "name": "sigS",
          "type": "bytes32"
        },
        {
          "internalType": "bytes32",
          "name": "delegateType",
          "type": "bytes32"
        },
        {
          "internalType": "address",
          "name": "delegate",
          "type": "address"
        }
      ],
      "name": "revokeDelegateSigned",
      "outputs": [],
      "stateMutability": "nonpayable",
      "type": "function"
    },
    {
      "inputs": [
        {
          "internalType": "address",
          "name": "identity",
          "type": "address"
        },
        {
          "internalType": "bytes32",
          "name": "name",
          "type": "bytes32"
        },
        {
          "internalType": "bytes",
          "name": "value",
          "type": "bytes"
        },
        {
          "internalType": "uint256",
          "name": "validity",
          "type": "uint256"
        }
      ],
      "name": "setAttribute",
      "outputs": [],
      "stateMutability": "nonpayable",
      "type": "function"
    },
    {
      "inputs": [
        {
          "internalType": "address",
          "name": "identity",
          "type": "address"
        },
        {
          "internalType": "uint8",
          "name": "sigV",
          "type": "uint8"
        },
        {
          "internalType": "bytes32",
          "name": "sigR",
          "type": "bytes32"
        },
        {
          "internalType": "bytes32",
          "name": "sigS",
          "type": "bytes32"
        },
        {
          "internalType": "bytes32",
          "name": "name",
          "type": "bytes32"
        },
        {
          "internalType": "bytes",
          "name": "value",
          "type": "bytes"
        },
        {
          "internalType": "uint256",
          "name": "validity",
          "type": "uint256"
        }
      ],
      "name": "setAttributeSigned",
      "outputs": [],
      "stateMutability": "nonpayable",
      "type": "function"
    },
    {
      "inputs": [
        {
          "internalType": "address",
          "name": "identity",
          "type": "address"
        },
        {
          "internalType": "bytes32",
          "name": "delegateType",
          "type": "bytes32"
        },
        {
          "internalType": "address",
          "name": "delegate",
          "type": "address"
        }
      ],
      "name": "validDelegate",
      "outputs": [
        {
          "internalType": "bool",
          "name": "",
          "type": "bool"
        }
      ],
      "stateMutability": "view",
      "type": "function"
    }
  ],
  "transactionHash": "0xea566a1142d3b22b8db1a358423cdcb1dec4793ef27b3c2cf837bccea6c3d65b",
  "args": [],
  "numDeployments": 1,
  "solcInputHash": "e3994f3cb37c659752947cba1eda4385",
  "bytecode": "0x608060405234801561001057600080fd5b50612358806100206000396000f3fe608060405234801561001057600080fd5b50600436106100ff5760003560e01c806380b29f7c11610097578063a7068d6611610066578063a7068d66146102b8578063e476af5c146102d4578063f00d4b5d146102f0578063f96d0f9f1461030c576100ff565b806380b29f7c146102345780638733d4e81461025057806393072684146102805780639c2c1b2b1461029c576100ff565b8063240cf1fa116100d3578063240cf1fa1461019c578063622b2a3c146101b857806370ae92d2146101e85780637ad4b0a414610218576100ff565b8062c023da14610104578063022914a7146101205780630d44625b14610150578063123b5e9814610180575b600080fd5b61011e60048036038101906101199190611452565b61033c565b005b61013a600480360381019061013591906114c6565b610392565b6040516101479190611502565b60405180910390f35b61016a6004803603810190610165919061151d565b6103c5565b6040516101779190611589565b60405180910390f35b61019a60048036038101906101959190611609565b6103f7565b005b6101b660048036038101906101b191906116cb565b6104e9565b005b6101d260048036038101906101cd919061151d565b61058c565b6040516101df9190611761565b60405180910390f35b61020260048036038101906101fd91906114c6565b610652565b60405161020f9190611589565b60405180910390f35b610232600480360381019061022d919061177c565b61066a565b005b61024e6004803603810190610249919061151d565b6106c2565b005b61026a600480360381019061026591906114c6565b6106d3565b6040516102779190611502565b60405180910390f35b61029a60048036038101906102959190611804565b61077e565b005b6102b660048036038101906102b19190611891565b610825565b005b6102d260048036038101906102cd9190611933565b6108d0565b005b6102ee60048036038101906102e9919061199a565b6108e3565b005b61030a60048036038101906103059190611a49565b6109d1565b005b610326600480360381019061032191906114c6565b6109e0565b6040516103339190611589565b60405180910390f35b61038c84338585858080601f016020809104026020016040519081016040528093929190818152602001838380828437600081840152601f19601f820116905080830192505050505050506109f8565b50505050565b60006020528060005260406000206000915054906101000a900473ffffffffffffffffffffffffffffffffffffffff1681565b600360205282600052604060002060205281600052604060002060205280600052604060002060009250925050505481565b6000601960f81b600060f81b30600160006104118e6106d3565b73ffffffffffffffffffffffffffffffffffffffff1673ffffffffffffffffffffffffffffffffffffffff168152602001908152602001600020548c8989898960405160200161046999989796959493929190611bf6565b6040516020818303038152906040528051906020012090506104de896104928b8b8b8b87610b4f565b8787878080601f016020809104026020016040519081016040528093929190818152602001838380828437600081840152601f19601f8201169050808301925050505050505086610c7b565b505050505050505050565b6000601960f81b600060f81b30600160006105038b6106d3565b73ffffffffffffffffffffffffffffffffffffffff1673ffffffffffffffffffffffffffffffffffffffff16815260200190815260200160002054898660405160200161055596959493929190611cdd565b6040516020818303038152906040528051906020012090506105848661057e8888888887610b4f565b84610dde565b505050505050565b600080600360008673ffffffffffffffffffffffffffffffffffffffff1673ffffffffffffffffffffffffffffffffffffffff1681526020019081526020016000206000856040516020016105e19190611d58565b60405160208183030381529060405280519060200120815260200190815260200160002060008473ffffffffffffffffffffffffffffffffffffffff1673ffffffffffffffffffffffffffffffffffffffff1681526020019081526020016000205490504281119150509392505050565b60016020528060005260406000206000915090505481565b6106bb85338686868080601f016020809104026020016040519081016040528093929190818152602001838380828437600081840152601f19601f8201169050808301925050505050505085610c7b565b5050505050565b6106ce83338484610f1e565b505050565b6000806000808473ffffffffffffffffffffffffffffffffffffffff1673ffffffffffffffffffffffffffffffffffffffff16815260200190815260200160002060009054906101000a900473ffffffffffffffffffffffffffffffffffffffff169050600073ffffffffffffffffffffffffffffffffffffffff168173ffffffffffffffffffffffffffffffffffffffff16146107745780915050610779565b829150505b919050565b6000601960f81b600060f81b30600160006107988c6106d3565b73ffffffffffffffffffffffffffffffffffffffff1673ffffffffffffffffffffffffffffffffffffffff168152602001908152602001600020548a87876040516020016107ec9796959493929190611dbf565b60405160208183030381529060405280519060200120905061081c876108158989898987610b4f565b8585610f1e565b50505050505050565b6000601960f81b600060f81b306001600061083f8d6106d3565b73ffffffffffffffffffffffffffffffffffffffff1673ffffffffffffffffffffffffffffffffffffffff168152602001908152602001600020548b888888604051602001610895989796959493929190611e97565b6040516020818303038152906040528051906020012090506108c6886108be8a8a8a8a87610b4f565b868686611129565b5050505050505050565b6108dd8433858585611129565b50505050565b6000601960f81b600060f81b30600160006108fd8d6106d3565b73ffffffffffffffffffffffffffffffffffffffff1673ffffffffffffffffffffffffffffffffffffffff168152602001908152602001600020548b888888604051602001610953989796959493929190611f80565b6040516020818303038152906040528051906020012090506109c78861097c8a8a8a8a87610b4f565b8686868080601f016020809104026020016040519081016040528093929190818152602001838380828437600081840152601f19601f820116905080830192505050505050506109f8565b5050505050505050565b6109dc338383610dde565b5050565b60026020528060005260406000206000915090505481565b8383610a03826106d3565b73ffffffffffffffffffffffffffffffffffffffff168173ffffffffffffffffffffffffffffffffffffffff1614610a70576040517f08c379a0000000000000000000000000000000000000000000000000000000008152600401610a6790612067565b60405180910390fd5b8573ffffffffffffffffffffffffffffffffffffffff167f18ab6b2ae3d64306c00ce663125f2bd680e441a098de1635bd7ad8b0d44965e4858542600260008c73ffffffffffffffffffffffffffffffffffffffff1673ffffffffffffffffffffffffffffffffffffffff16815260200190815260200160002054604051610afb9493929190612126565b60405180910390a243600260008873ffffffffffffffffffffffffffffffffffffffff1673ffffffffffffffffffffffffffffffffffffffff16815260200190815260200160002081905550505050505050565b60008060018387878760405160008152602001604052604051610b759493929190612181565b6020604051602081039080840390855afa158015610b97573d6000803e3d6000fd5b505050602060405103519050610bac876106d3565b73ffffffffffffffffffffffffffffffffffffffff168173ffffffffffffffffffffffffffffffffffffffff1614610c19576040517f08c379a0000000000000000000000000000000000000000000000000000000008152600401610c1090612212565b60405180910390fd5b600160008273ffffffffffffffffffffffffffffffffffffffff1673ffffffffffffffffffffffffffffffffffffffff1681526020019081526020016000206000815480929190610c6990612261565b91905055508091505095945050505050565b8484610c86826106d3565b73ffffffffffffffffffffffffffffffffffffffff168173ffffffffffffffffffffffffffffffffffffffff1614610cf3576040517f08c379a0000000000000000000000000000000000000000000000000000000008152600401610cea90612067565b60405180910390fd5b8673ffffffffffffffffffffffffffffffffffffffff167f18ab6b2ae3d64306c00ce663125f2bd680e441a098de1635bd7ad8b0d44965e486864287610d3991906122a9565b600260008d73ffffffffffffffffffffffffffffffffffffffff1673ffffffffffffffffffffffffffffffffffffffff16815260200190815260200160002054604051610d899493929190612126565b60405180910390a243600260008973ffffffffffffffffffffffffffffffffffffffff1673ffffffffffffffffffffffffffffffffffffffff1681526020019081526020016000208190555050505050505050565b8183610de9826106d3565b73ffffffffffffffffffffffffffffffffffffffff168173ffffffffffffffffffffffffffffffffffffffff1614610e56576040517f08c379a0000000000000000000000000000000000000000000000000000000008152600401610e4d90612067565b60405180910390fd5b826000808773ffffffffffffffffffffffffffffffffffffffff1673ffffffffffffffffffffffffffffffffffffffff16815260200190815260200160002060006101000a81548173ffffffffffffffffffffffffffffffffffffffff021916908373ffffffffffffffffffffffffffffffffffffffff16021790555043600260008773ffffffffffffffffffffffffffffffffffffffff1673ffffffffffffffffffffffffffffffffffffffff168152602001908152602001600020819055505050505050565b8383610f29826106d3565b73ffffffffffffffffffffffffffffffffffffffff168173ffffffffffffffffffffffffffffffffffffffff1614610f96576040517f08c379a0000000000000000000000000000000000000000000000000000000008152600401610f8d90612067565b60405180910390fd5b42600360008873ffffffffffffffffffffffffffffffffffffffff1673ffffffffffffffffffffffffffffffffffffffff168152602001908152602001600020600086604051602001610fe99190611d58565b60405160208183030381529060405280519060200120815260200190815260200160002060008573ffffffffffffffffffffffffffffffffffffffff1673ffffffffffffffffffffffffffffffffffffffff168152602001908152602001600020819055508573ffffffffffffffffffffffffffffffffffffffff167f5a5084339536bcab65f20799fcc58724588145ca054bd2be626174b27ba156f7858542600260008c73ffffffffffffffffffffffffffffffffffffffff1673ffffffffffffffffffffffffffffffffffffffff168152602001908152602001600020546040516110d994939291906122dd565b60405180910390a2600260008773ffffffffffffffffffffffffffffffffffffffff1673ffffffffffffffffffffffffffffffffffffffff16815260200190815260200160002050505050505050565b8484611134826106d3565b73ffffffffffffffffffffffffffffffffffffffff168173ffffffffffffffffffffffffffffffffffffffff16146111a1576040517f08c379a000000000000000000000000000000000000000000000000000000000815260040161119890612067565b60405180910390fd5b42836111ad91906122a9565b600360008973ffffffffffffffffffffffffffffffffffffffff1673ffffffffffffffffffffffffffffffffffffffff1681526020019081526020016000206000876040516020016111ff9190611d58565b60405160208183030381529060405280519060200120815260200190815260200160002060008673ffffffffffffffffffffffffffffffffffffffff1673ffffffffffffffffffffffffffffffffffffffff168152602001908152602001600020819055508673ffffffffffffffffffffffffffffffffffffffff167f5a5084339536bcab65f20799fcc58724588145ca054bd2be626174b27ba156f7868642876112aa91906122a9565b600260008d73ffffffffffffffffffffffffffffffffffffffff1673ffffffffffffffffffffffffffffffffffffffff168152602001908152602001600020546040516112fa94939291906122dd565b60405180910390a243600260008973ffffffffffffffffffffffffffffffffffffffff1673ffffffffffffffffffffffffffffffffffffffff1681526020019081526020016000208190555050505050505050565b600080fd5b600080fd5b600073ffffffffffffffffffffffffffffffffffffffff82169050919050565b600061138482611359565b9050919050565b61139481611379565b811461139f57600080fd5b50565b6000813590506113b18161138b565b92915050565b6000819050919050565b6113ca816113b7565b81146113d557600080fd5b50565b6000813590506113e7816113c1565b92915050565b600080fd5b600080fd5b600080fd5b60008083601f840112611412576114116113ed565b5b8235905067ffffffffffffffff81111561142f5761142e6113f2565b5b60208301915083600182028301111561144b5761144a6113f7565b5b9250929050565b6000806000806060858703121561146c5761146b61134f565b5b600061147a878288016113a2565b945050602061148b878288016113d8565b935050604085013567ffffffffffffffff8111156114ac576114ab611354565b5b6114b8878288016113fc565b925092505092959194509250565b6000602082840312156114dc576114db61134f565b5b60006114ea848285016113a2565b91505092915050565b6114fc81611379565b82525050565b600060208201905061151760008301846114f3565b92915050565b6000806000606084860312156115365761153561134f565b5b6000611544868287016113a2565b9350506020611555868287016113d8565b9250506040611566868287016113a2565b9150509250925092565b6000819050919050565b61158381611570565b82525050565b600060208201905061159e600083018461157a565b92915050565b600060ff82169050919050565b6115ba816115a4565b81146115c557600080fd5b50565b6000813590506115d7816115b1565b92915050565b6115e681611570565b81146115f157600080fd5b50565b600081359050611603816115dd565b92915050565b60008060008060008060008060e0898b0312156116295761162861134f565b5b60006116378b828c016113a2565b98505060206116488b828c016115c8565b97505060406116598b828c016113d8565b965050606061166a8b828c016113d8565b955050608061167b8b828c016113d8565b94505060a089013567ffffffffffffffff81111561169c5761169b611354565b5b6116a88b828c016113fc565b935093505060c06116bb8b828c016115f4565b9150509295985092959890939650565b600080600080600060a086880312156116e7576116e661134f565b5b60006116f5888289016113a2565b9550506020611706888289016115c8565b9450506040611717888289016113d8565b9350506060611728888289016113d8565b9250506080611739888289016113a2565b9150509295509295909350565b60008115159050919050565b61175b81611746565b82525050565b60006020820190506117766000830184611752565b92915050565b6000806000806000608086880312156117985761179761134f565b5b60006117a6888289016113a2565b95505060206117b7888289016113d8565b945050604086013567ffffffffffffffff8111156117d8576117d7611354565b5b6117e4888289016113fc565b935093505060606117f7888289016115f4565b9150509295509295909350565b60008060008060008060c087890312156118215761182061134f565b5b600061182f89828a016113a2565b965050602061184089828a016115c8565b955050604061185189828a016113d8565b945050606061186289828a016113d8565b935050608061187389828a016113d8565b92505060a061188489828a016113a2565b9150509295509295509295565b600080600080600080600060e0888a0312156118b0576118af61134f565b5b60006118be8a828b016113a2565b97505060206118cf8a828b016115c8565b96505060406118e08a828b016113d8565b95505060606118f18a828b016113d8565b94505060806119028a828b016113d8565b93505060a06119138a828b016113a2565b92505060c06119248a828b016115f4565b91505092959891949750929550565b6000806000806080858703121561194d5761194c61134f565b5b600061195b878288016113a2565b945050602061196c878288016113d8565b935050604061197d878288016113a2565b925050606061198e878288016115f4565b91505092959194509250565b600080600080600080600060c0888a0312156119b9576119b861134f565b5b60006119c78a828b016113a2565b97505060206119d88a828b016115c8565b96505060406119e98a828b016113d8565b95505060606119fa8a828b016113d8565b9450506080611a0b8a828b016113d8565b93505060a088013567ffffffffffffffff811115611a2c57611a2b611354565b5b611a388a828b016113fc565b925092505092959891949750929550565b60008060408385031215611a6057611a5f61134f565b5b6000611a6e858286016113a2565b9250506020611a7f858286016113a2565b9150509250929050565b60007fff0000000000000000000000000000000000000000000000000000000000000082169050919050565b6000819050919050565b611ad0611acb82611a89565b611ab5565b82525050565b60008160601b9050919050565b6000611aee82611ad6565b9050919050565b6000611b0082611ae3565b9050919050565b611b18611b1382611379565b611af5565b82525050565b6000819050919050565b611b39611b3482611570565b611b1e565b82525050565b600081905092915050565b7f7365744174747269627574650000000000000000000000000000000000000000600082015250565b6000611b80600c83611b3f565b9150611b8b82611b4a565b600c82019050919050565b6000819050919050565b611bb1611bac826113b7565b611b96565b82525050565b600081905092915050565b82818337600083830152505050565b6000611bdd8385611bb7565b9350611bea838584611bc2565b82840190509392505050565b6000611c02828c611abf565b600182019150611c12828b611abf565b600182019150611c22828a611b07565b601482019150611c328289611b28565b602082019150611c428288611b07565b601482019150611c5182611b73565b9150611c5d8287611ba0565b602082019150611c6e828587611bd1565b9150611c7a8284611b28565b6020820191508190509a9950505050505050505050565b7f6368616e67654f776e6572000000000000000000000000000000000000000000600082015250565b6000611cc7600b83611b3f565b9150611cd282611c91565b600b82019050919050565b6000611ce98289611abf565b600182019150611cf98288611abf565b600182019150611d098287611b07565b601482019150611d198286611b28565b602082019150611d298285611b07565b601482019150611d3882611cba565b9150611d448284611b07565b601482019150819050979650505050505050565b6000611d648284611ba0565b60208201915081905092915050565b7f7265766f6b6544656c6567617465000000000000000000000000000000000000600082015250565b6000611da9600e83611b3f565b9150611db482611d73565b600e82019050919050565b6000611dcb828a611abf565b600182019150611ddb8289611abf565b600182019150611deb8288611b07565b601482019150611dfb8287611b28565b602082019150611e0b8286611b07565b601482019150611e1a82611d9c565b9150611e268285611ba0565b602082019150611e368284611b07565b60148201915081905098975050505050505050565b7f61646444656c6567617465000000000000000000000000000000000000000000600082015250565b6000611e81600b83611b3f565b9150611e8c82611e4b565b600b82019050919050565b6000611ea3828b611abf565b600182019150611eb3828a611abf565b600182019150611ec38289611b07565b601482019150611ed38288611b28565b602082019150611ee38287611b07565b601482019150611ef282611e74565b9150611efe8286611ba0565b602082019150611f0e8285611b07565b601482019150611f1e8284611b28565b6020820191508190509998505050505050505050565b7f7265766f6b654174747269627574650000000000000000000000000000000000600082015250565b6000611f6a600f83611b3f565b9150611f7582611f34565b600f82019050919050565b6000611f8c828b611abf565b600182019150611f9c828a611abf565b600182019150611fac8289611b07565b601482019150611fbc8288611b28565b602082019150611fcc8287611b07565b601482019150611fdb82611f5d565b9150611fe78286611ba0565b602082019150611ff8828486611bd1565b91508190509998505050505050505050565b600082825260208201905092915050565b7f4572726f723a204f776e6572206f6e6c792066756e6374696f6e000000000000600082015250565b6000612051601a8361200a565b915061205c8261201b565b602082019050919050565b6000602082019050818103600083015261208081612044565b9050919050565b612090816113b7565b82525050565b600081519050919050565b600082825260208201905092915050565b60005b838110156120d05780820151818401526020810190506120b5565b60008484015250505050565b6000601f19601f8301169050919050565b60006120f882612096565b61210281856120a1565b93506121128185602086016120b2565b61211b816120dc565b840191505092915050565b600060808201905061213b6000830187612087565b818103602083015261214d81866120ed565b905061215c604083018561157a565b612169606083018461157a565b95945050505050565b61217b816115a4565b82525050565b60006080820190506121966000830187612087565b6121a36020830186612172565b6121b06040830185612087565b6121bd6060830184612087565b95945050505050565b7f4572726f723a205369676e6572206973206e6f74204f776e6572000000000000600082015250565b60006121fc601a8361200a565b9150612207826121c6565b602082019050919050565b6000602082019050818103600083015261222b816121ef565b9050919050565b7f4e487b7100000000000000000000000000000000000000000000000000000000600052601160045260246000fd5b600061226c82611570565b91507fffffffffffffffffffffffffffffffffffffffffffffffffffffffffffffffff820361229e5761229d612232565b5b600182019050919050565b60006122b482611570565b91506122bf83611570565b92508282019050808211156122d7576122d6612232565b5b92915050565b60006080820190506122f26000830187612087565b6122ff60208301866114f3565b61230c604083018561157a565b612319606083018461157a565b9594505050505056fea26469706673582212203f1406ec15b38a3a8c6e83ecac4545fcb3d54f3a49c3a8d054a876f6a2b7ee2f64736f6c63430008140033",
  "devdoc": {
    "kind": "dev",
    "methods": {},
    "stateVariables": {
      "changed": {
        "details": "identity => block number"
      },
      "delegates": {
        "details": "identity => attribute => delegate => validity"
      },
      "nonce": {
        "details": "Owner address => unsigned integer"
      },
      "owners": {
        "details": "Owner address => identity address"
      }
    },
    "version": 1
  },
  "userdoc": {
    "kind": "user",
    "methods": {},
    "version": 1
  },
  "storageLayout": {
    "storage": [
      {
        "astId": 1744,
        "contract": "contracts/EthereumDIDRegistry.sol:EthereumDIDRegistry",
        "label": "owners",
        "offset": 0,
        "slot": "0",
        "type": "t_mapping(t_address,t_address)"
      },
      {
        "astId": 1749,
        "contract": "contracts/EthereumDIDRegistry.sol:EthereumDIDRegistry",
        "label": "nonce",
        "offset": 0,
        "slot": "1",
        "type": "t_mapping(t_address,t_uint256)"
      },
      {
        "astId": 1754,
        "contract": "contracts/EthereumDIDRegistry.sol:EthereumDIDRegistry",
        "label": "changed",
        "offset": 0,
        "slot": "2",
        "type": "t_mapping(t_address,t_uint256)"
      },
      {
        "astId": 1763,
        "contract": "contracts/EthereumDIDRegistry.sol:EthereumDIDRegistry",
        "label": "delegates",
        "offset": 0,
        "slot": "3",
        "type": "t_mapping(t_address,t_mapping(t_bytes32,t_mapping(t_address,t_uint256)))"
      }
    ],
    "types": {
      "t_address": {
        "encoding": "inplace",
        "label": "address",
        "numberOfBytes": "20"
      },
      "t_bytes32": {
        "encoding": "inplace",
        "label": "bytes32",
        "numberOfBytes": "32"
      },
      "t_mapping(t_address,t_address)": {
        "encoding": "mapping",
        "key": "t_address",
        "label": "mapping(address => address)",
        "numberOfBytes": "32",
        "value": "t_address"
      },
      "t_mapping(t_address,t_mapping(t_bytes32,t_mapping(t_address,t_uint256)))": {
        "encoding": "mapping",
        "key": "t_address",
        "label": "mapping(address => mapping(bytes32 => mapping(address => uint256)))",
        "numberOfBytes": "32",
        "value": "t_mapping(t_bytes32,t_mapping(t_address,t_uint256))"
      },
      "t_mapping(t_address,t_uint256)": {
        "encoding": "mapping",
        "key": "t_address",
        "label": "mapping(address => uint256)",
        "numberOfBytes": "32",
        "value": "t_uint256"
      },
      "t_mapping(t_bytes32,t_mapping(t_address,t_uint256))": {
        "encoding": "mapping",
        "key": "t_bytes32",
        "label": "mapping(bytes32 => mapping(address => uint256))",
        "numberOfBytes": "32",
        "value": "t_mapping(t_address,t_uint256)"
      },
      "t_uint256": {
        "encoding": "inplace",
        "label": "uint256",
        "numberOfBytes": "32"
      }
    }
  }
}