{
  "address": "0xF1e3a448a647dC0Ebaf370F8Ea4b1F6948Ce2F3e",
  "abi": [
    {
      "anonymous": false,
      "inputs": [
        {
          "indexed": true,
          "internalType": "address",
          "name": "issuer",
          "type": "address"
        },
        {
          "indexed": true,
          "internalType": "address",
          "name": "subject",
          "type": "address"
        },
        {
          "indexed": true,
          "internalType": "bytes32",
          "name": "key",
          "type": "bytes32"
        },
        {
          "indexed": false,
          "internalType": "uint256",
          "name": "updatedAt",
          "type": "uint256"
        }
      ],
      "name": "ClaimRemoved",
      "type": "event"
    },
    {
      "anonymous": false,
      "inputs": [
        {
          "indexed": true,
          "internalType": "address",
          "name": "issuer",
          "type": "address"
        },
        {
          "indexed": true,
          "internalType": "address",
          "name": "subject",
          "type": "address"
        },
        {
          "indexed": true,
          "internalType": "bytes32",
          "name": "key",
          "type": "bytes32"
        },
        {
          "indexed": false,
          "internalType": "bytes32",
          "name": "value",
          "type": "bytes32"
        },
        {
          "indexed": false,
          "internalType": "uint256",
          "name": "updatedAt",
          "type": "uint256"
        }
      ],
      "name": "ClaimSet",
      "type": "event"
    },
    {
      "inputs": [
        {
          "internalType": "address",
          "name": "issuer",
          "type": "address"
        },
        {
          "internalType": "address",
          "name": "subject",
          "type": "address"
        },
        {
          "internalType": "bytes32",
          "name": "key",
          "type": "bytes32"
        }
      ],
      "name": "getClaim",
      "outputs": [
        {
          "internalType": "bytes32",
          "name": "",
          "type": "bytes32"
        }
      ],
      "stateMutability": "view",
      "type": "function"
    },
    {
      "inputs": [
        {
          "internalType": "address",
          "name": "issuer",
          "type": "address"
        },
        {
          "internalType": "address",
          "name": "subject",
          "type": "address"
        },
        {
          "internalType": "bytes32",
          "name": "key",
          "type": "bytes32"
        }
      ],
      "name": "removeClaim",
      "outputs": [],
      "stateMutability": "nonpayable",
      "type": "function"
    },
    {
      "inputs": [
        {
          "internalType": "address",
          "name": "subject",
          "type": "address"
        },
        {
          "internalType": "bytes32",
          "name": "key",
          "type": "bytes32"
        },
        {
          "internalType": "bytes32",
          "name": "value",
          "type": "bytes32"
        }
      ],
      "name": "setClaim",
      "outputs": [],
      "stateMutability": "nonpayable",
      "type": "function"
    },
    {
      "inputs": [
        {
          "internalType": "bytes32",
          "name": "key",
          "type": "bytes32"
        },
        {
          "internalType": "bytes32",
          "name": "value",
          "type": "bytes32"
        }
      ],
      "name": "setSelfClaim",
      "outputs": [],
      "stateMutability": "nonpayable",
      "type": "function"
    }
  ],
  "transactionHash": "0x3575aeff45b355a281427815c8e767c5355dcf86862cdbd0b330a85e2786b26a",
  "args": [],
  "numDeployments": 1,
  "solcInputHash": "e3994f3cb37c659752947cba1eda4385",
  "bytecode": "0x608060405234801561001057600080fd5b506106c8806100206000396000f3fe608060405234801561001057600080fd5b506004361061004c5760003560e01c80639155b01a146100515780639918925d1461006d578063c7508ec714610089578063e1661eff146100a5575b600080fd5b61006b60048036038101906100669190610424565b6100d5565b005b610087600480360381019061008291906104c2565b6100e4565b005b6100a3600480360381019061009e9190610515565b6101e2565b005b6100bf60048036038101906100ba9190610515565b610351565b6040516100cc9190610577565b60405180910390f35b6100e03383836100e4565b5050565b806000803373ffffffffffffffffffffffffffffffffffffffff1673ffffffffffffffffffffffffffffffffffffffff16815260200190815260200160002060008573ffffffffffffffffffffffffffffffffffffffff1673ffffffffffffffffffffffffffffffffffffffff168152602001908152602001600020600084815260200190815260200160002081905550818373ffffffffffffffffffffffffffffffffffffffff163373ffffffffffffffffffffffffffffffffffffffff167f8c9f893548e8429f9352aba6698e6f4dca2e390604f6e8c5881a7a505d94ae5084426040516101d59291906105ab565b60405180910390a4505050565b60003390508073ffffffffffffffffffffffffffffffffffffffff168473ffffffffffffffffffffffffffffffffffffffff1614610255576040517f08c379a000000000000000000000000000000000000000000000000000000000815260040161024c90610657565b60405180910390fd5b6000808573ffffffffffffffffffffffffffffffffffffffff1673ffffffffffffffffffffffffffffffffffffffff16815260200190815260200160002060008473ffffffffffffffffffffffffffffffffffffffff1673ffffffffffffffffffffffffffffffffffffffff168152602001908152602001600020600083815260200190815260200160002060009055818373ffffffffffffffffffffffffffffffffffffffff168573ffffffffffffffffffffffffffffffffffffffff167f7bc046ef9f2fccd4c99778d7e0fbed67ddb16e63e1a266894769de9516b8039a426040516103439190610677565b60405180910390a450505050565b60008060008573ffffffffffffffffffffffffffffffffffffffff1673ffffffffffffffffffffffffffffffffffffffff16815260200190815260200160002060008473ffffffffffffffffffffffffffffffffffffffff1673ffffffffffffffffffffffffffffffffffffffff16815260200190815260200160002060008381526020019081526020016000205490509392505050565b600080fd5b6000819050919050565b610401816103ee565b811461040c57600080fd5b50565b60008135905061041e816103f8565b92915050565b6000806040838503121561043b5761043a6103e9565b5b60006104498582860161040f565b925050602061045a8582860161040f565b9150509250929050565b600073ffffffffffffffffffffffffffffffffffffffff82169050919050565b600061048f82610464565b9050919050565b61049f81610484565b81146104aa57600080fd5b50565b6000813590506104bc81610496565b92915050565b6000806000606084860312156104db576104da6103e9565b5b60006104e9868287016104ad565b93505060206104fa8682870161040f565b925050604061050b8682870161040f565b9150509250925092565b60008060006060848603121561052e5761052d6103e9565b5b600061053c868287016104ad565b935050602061054d868287016104ad565b925050604061055e8682870161040f565b9150509250925092565b610571816103ee565b82525050565b600060208201905061058c6000830184610568565b92915050565b6000819050919050565b6105a581610592565b82525050565b60006040820190506105c06000830185610568565b6105cd602083018461059c565b9392505050565b600082825260208201905092915050565b7f4572726f723a20436c61696d20697373756572206d7573742062652063616c6c60008201527f6572000000000000000000000000000000000000000000000000000000000000602082015250565b60006106416022836105d4565b915061064c826105e5565b604082019050919050565b6000602082019050818103600083015261067081610634565b9050919050565b600060208201905061068c600083018461059c565b9291505056fea26469706673582212201e7ef95b907ec40d80a994d02a4f027ad549746326a767ca9f5c213e895a4b0064736f6c63430008140033",
  "devdoc": {
    "kind": "dev",
    "methods": {},
    "title": "Ethereum Claims Registry (ERC780)",
    "version": 1
  },
  "userdoc": {
    "kind": "user",
    "methods": {},
    "version": 1
  },
  "storageLayout": {
    "storage": [
      {
        "astId": 1609,
        "contract": "contracts/EthereumClaimsRegistry.sol:EthereumClaimsRegistry",
        "label": "registry",
        "offset": 0,
        "slot": "0",
        "type": "t_mapping(t_address,t_mapping(t_address,t_mapping(t_bytes32,t_bytes32)))"
      }
    ],
    "types": {
      "t_address": {
        "encoding": "inplace",
        "label": "address",
        "numberOfBytes": "20"
      },
      "t_bytes32": {
        "encoding": "inplace",
        "label": "bytes32",
        "numberOfBytes": "32"
      },
      "t_mapping(t_address,t_mapping(t_address,t_mapping(t_bytes32,t_bytes32)))": {
        "encoding": "mapping",
        "key": "t_address",
        "label": "mapping(address => mapping(address => mapping(bytes32 => bytes32)))",
        "numberOfBytes": "32",
        "value": "t_mapping(t_address,t_mapping(t_bytes32,t_bytes32))"
      },
      "t_mapping(t_address,t_mapping(t_bytes32,t_bytes32))": {
        "encoding": "mapping",
        "key": "t_address",
        "label": "mapping(address => mapping(bytes32 => bytes32))",
        "numberOfBytes": "32",
        "value": "t_mapping(t_bytes32,t_bytes32)"
      },
      "t_mapping(t_bytes32,t_bytes32)": {
        "encoding": "mapping",
        "key": "t_bytes32",
        "label": "mapping(bytes32 => bytes32)",
        "numberOfBytes": "32",
        "value": "t_bytes32"
      }
    }
  }
}