{
  "address": "0x5Db3192985fB9d7aeFFC1aF68D0Df63e9478358C",
  "abi": [
    {
      "inputs": [
        {
          "internalType": "address[]",
          "name": "defaultOperators",
          "type": "address[]"
        },
        {
          "internalType": "address",
          "name": "_didRegistry",
          "type": "address"
        },
        {
          "internalType": "address",
          "name": "_claimsRegistry",
          "type": "address"
        },
        {
          "internalType": "address",
          "name": "_claimsIssuer",
          "type": "address"
        }
      ],
      "stateMutability": "nonpayable",
      "type": "constructor"
    },
    {
      "anonymous": false,
      "inputs": [
        {
          "indexed": true,
          "internalType": "address",
          "name": "owner",
          "type": "address"
        },
        {
          "indexed": true,
          "internalType": "address",
          "name": "spender",
          "type": "address"
        },
        {
          "indexed": false,
          "internalType": "uint256",
          "name": "value",
          "type": "uint256"
        }
      ],
      "name": "Approval",
      "type": "event"
    },
    {
      "anonymous": false,
      "inputs": [
        {
          "indexed": true,
          "internalType": "address",
          "name": "operator",
          "type": "address"
        },
        {
          "indexed": true,
          "internalType": "address",
          "name": "tokenHolder",
          "type": "address"
        }
      ],
      "name": "AuthorizedOperator",
      "type": "event"
    },
    {
      "anonymous": false,
      "inputs": [
        {
          "indexed": true,
          "internalType": "address",
          "name": "operator",
          "type": "address"
        },
        {
          "indexed": true,
          "internalType": "address",
          "name": "from",
          "type": "address"
        },
        {
          "indexed": false,
          "internalType": "uint256",
          "name": "amount",
          "type": "uint256"
        },
        {
          "indexed": false,
          "internalType": "bytes",
          "name": "data",
          "type": "bytes"
        },
        {
          "indexed": false,
          "internalType": "bytes",
          "name": "operatorData",
          "type": "bytes"
        }
      ],
      "name": "Burned",
      "type": "event"
    },
    {
      "anonymous": false,
      "inputs": [
        {
          "indexed": true,
          "internalType": "address",
          "name": "operator",
          "type": "address"
        },
        {
          "indexed": true,
          "internalType": "address",
          "name": "to",
          "type": "address"
        },
        {
          "indexed": false,
          "internalType": "uint256",
          "name": "amount",
          "type": "uint256"
        },
        {
          "indexed": false,
          "internalType": "bytes",
          "name": "data",
          "type": "bytes"
        },
        {
          "indexed": false,
          "internalType": "bytes",
          "name": "operatorData",
          "type": "bytes"
        }
      ],
      "name": "Minted",
      "type": "event"
    },
    {
      "anonymous": false,
      "inputs": [
        {
          "indexed": true,
          "internalType": "address",
          "name": "operator",
          "type": "address"
        },
        {
          "indexed": true,
          "internalType": "address",
          "name": "tokenHolder",
          "type": "address"
        }
      ],
      "name": "RevokedOperator",
      "type": "event"
    },
    {
      "anonymous": false,
      "inputs": [
        {
          "indexed": true,
          "internalType": "address",
          "name": "operator",
          "type": "address"
        },
        {
          "indexed": true,
          "internalType": "address",
          "name": "from",
          "type": "address"
        },
        {
          "indexed": true,
          "internalType": "address",
          "name": "to",
          "type": "address"
        },
        {
          "indexed": false,
          "internalType": "uint256",
          "name": "amount",
          "type": "uint256"
        },
        {
          "indexed": false,
          "internalType": "bytes",
          "name": "data",
          "type": "bytes"
        },
        {
          "indexed": false,
          "internalType": "bytes",
          "name": "operatorData",
          "type": "bytes"
        }
      ],
      "name": "Sent",
      "type": "event"
    },
    {
      "anonymous": false,
      "inputs": [
        {
          "indexed": true,
          "internalType": "address",
          "name": "from",
          "type": "address"
        },
        {
          "indexed": true,
          "internalType": "address",
          "name": "to",
          "type": "address"
        },
        {
          "indexed": false,
          "internalType": "uint256",
          "name": "value",
          "type": "uint256"
        }
      ],
      "name": "Transfer",
      "type": "event"
    },
    {
      "inputs": [
        {
          "internalType": "address",
          "name": "owner",
          "type": "address"
        },
        {
          "internalType": "address",
          "name": "spender",
          "type": "address"
        }
      ],
      "name": "allowance",
      "outputs": [
        {
          "internalType": "uint256",
          "name": "",
          "type": "uint256"
        }
      ],
      "stateMutability": "view",
      "type": "function"
    },
    {
      "inputs": [
        {
          "internalType": "address",
          "name": "spender",
          "type": "address"
        },
        {
          "internalType": "uint256",
          "name": "value",
          "type": "uint256"
        }
      ],
      "name": "approve",
      "outputs": [
        {
          "internalType": "bool",
          "name": "",
          "type": "bool"
        }
      ],
      "stateMutability": "nonpayable",
      "type": "function"
    },
    {
      "inputs": [
        {
          "internalType": "address",
          "name": "operator",
          "type": "address"
        }
      ],
      "name": "authorizeOperator",
      "outputs": [],
      "stateMutability": "nonpayable",
      "type": "function"
    },
    {
      "inputs": [
        {
          "internalType": "address",
          "name": "owner",
          "type": "address"
        }
      ],
      "name": "balanceOf",
      "outputs": [
        {
          "internalType": "uint256",
          "name": "",
          "type": "uint256"
        }
      ],
      "stateMutability": "view",
      "type": "function"
    },
    {
      "inputs": [
        {
          "internalType": "uint256",
          "name": "amount",
          "type": "uint256"
        },
        {
          "internalType": "bytes",
          "name": "data",
          "type": "bytes"
        }
      ],
      "name": "burn",
      "outputs": [],
      "stateMutability": "nonpayable",
      "type": "function"
    },
    {
      "inputs": [],
      "name": "claimsIssuer",
      "outputs": [
        {
          "internalType": "contract TokenClaimsIssuer",
          "name": "",
          "type": "address"
        }
      ],
      "stateMutability": "view",
      "type": "function"
    },
    {
      "inputs": [],
      "name": "claimsRegister",
      "outputs": [
        {
          "internalType": "contract EthereumClaimsRegistry",
          "name": "",
          "type": "address"
        }
      ],
      "stateMutability": "view",
      "type": "function"
    },
    {
      "inputs": [],
      "name": "decimals",
      "outputs": [
        {
          "internalType": "uint8",
          "name": "",
          "type": "uint8"
        }
      ],
      "stateMutability": "pure",
      "type": "function"
    },
    {
      "inputs": [],
      "name": "defaultOperators",
      "outputs": [
        {
          "internalType": "address[]",
          "name": "",
          "type": "address[]"
        }
      ],
      "stateMutability": "view",
      "type": "function"
    },
    {
      "inputs": [],
      "name": "didRegister",
      "outputs": [
        {
          "internalType": "contract EthereumDIDRegistry",
          "name": "",
          "type": "address"
        }
      ],
      "stateMutability": "view",
      "type": "function"
    },
    {
      "inputs": [],
      "name": "granularity",
      "outputs": [
        {
          "internalType": "uint256",
          "name": "",
          "type": "uint256"
        }
      ],
      "stateMutability": "pure",
      "type": "function"
    },
    {
      "inputs": [
        {
          "internalType": "address",
          "name": "tokenHolder",
          "type": "address"
        },
        {
          "internalType": "address",
          "name": "operator",
          "type": "address"
        }
      ],
      "name": "isOperatorFor",
      "outputs": [
        {
          "internalType": "bool",
          "name": "",
          "type": "bool"
        }
      ],
      "stateMutability": "view",
      "type": "function"
    },
    {
      "inputs": [],
      "name": "name",
      "outputs": [
        {
          "internalType": "string",
          "name": "",
          "type": "string"
        }
      ],
      "stateMutability": "view",
      "type": "function"
    },
    {
      "inputs": [
        {
          "internalType": "address",
          "name": "account",
          "type": "address"
        },
        {
          "internalType": "uint256",
          "name": "amount",
          "type": "uint256"
        },
        {
          "internalType": "bytes",
          "name": "data",
          "type": "bytes"
        },
        {
          "internalType": "bytes",
          "name": "operatorData",
          "type": "bytes"
        }
      ],
      "name": "operatorBurn",
      "outputs": [],
      "stateMutability": "nonpayable",
      "type": "function"
    },
    {
      "inputs": [
        {
          "internalType": "address",
          "name": "account",
          "type": "address"
        },
        {
          "internalType": "uint256",
          "name": "amount",
          "type": "uint256"
        },
        {
          "internalType": "bytes",
          "name": "data",
          "type": "bytes"
        },
        {
          "internalType": "bytes",
          "name": "operatorData",
          "type": "bytes"
        }
      ],
      "name": "operatorMint",
      "outputs": [],
      "stateMutability": "nonpayable",
      "type": "function"
    },
    {
      "inputs": [
        {
          "internalType": "address",
          "name": "sender",
          "type": "address"
        },
        {
          "internalType": "address",
          "name": "recipient",
          "type": "address"
        },
        {
          "internalType": "uint256",
          "name": "amount",
          "type": "uint256"
        },
        {
          "internalType": "bytes",
          "name": "data",
          "type": "bytes"
        },
        {
          "internalType": "bytes",
          "name": "operatorData",
          "type": "bytes"
        }
      ],
      "name": "operatorSend",
      "outputs": [],
      "stateMutability": "nonpayable",
      "type": "function"
    },
    {
      "inputs": [
        {
          "internalType": "address",
          "name": "operator",
          "type": "address"
        }
      ],
      "name": "revokeOperator",
      "outputs": [],
      "stateMutability": "nonpayable",
      "type": "function"
    },
    {
      "inputs": [
        {
          "internalType": "address",
          "name": "recipient",
          "type": "address"
        },
        {
          "internalType": "uint256",
          "name": "amount",
          "type": "uint256"
        },
        {
          "internalType": "bytes",
          "name": "data",
          "type": "bytes"
        }
      ],
      "name": "send",
      "outputs": [],
      "stateMutability": "nonpayable",
      "type": "function"
    },
    {
      "inputs": [],
      "name": "symbol",
      "outputs": [
        {
          "internalType": "string",
          "name": "",
          "type": "string"
        }
      ],
      "stateMutability": "view",
      "type": "function"
    },
    {
      "inputs": [],
      "name": "totalSupply",
      "outputs": [
        {
          "internalType": "uint256",
          "name": "",
          "type": "uint256"
        }
      ],
      "stateMutability": "view",
      "type": "function"
    },
    {
      "inputs": [
        {
          "internalType": "address",
          "name": "recipient",
          "type": "address"
        },
        {
          "internalType": "uint256",
          "name": "amount",
          "type": "uint256"
        }
      ],
      "name": "transfer",
      "outputs": [
        {
          "internalType": "bool",
          "name": "",
          "type": "bool"
        }
      ],
      "stateMutability": "nonpayable",
      "type": "function"
    },
    {
      "inputs": [
        {
          "internalType": "address",
          "name": "holder",
          "type": "address"
        },
        {
          "internalType": "address",
          "name": "recipient",
          "type": "address"
        },
        {
          "internalType": "uint256",
          "name": "amount",
          "type": "uint256"
        }
      ],
      "name": "transferFrom",
      "outputs": [
        {
          "internalType": "bool",
          "name": "",
          "type": "bool"
        }
      ],
      "stateMutability": "nonpayable",
      "type": "function"
    }
  ],
  "transactionHash": "0x2ce8da8f268770dfa8de6d4d163edc33e232b3944a2a71adc7f37c7f73a0fc14",
  "args": [
    [
      "0xf59186a46f37F167CDC7be2B7c824900Baa9F7cF",
      "0x59003fddE4301D6805d22572956cCd13ebE3c65C"
    ],
    "0xd91B363364C126a0aa32D646D324AE1aE258b9E4",
    "0xF1e3a448a647dC0Ebaf370F8Ea4b1F6948Ce2F3e",
    "0x5661499B1bC966f31f6C4496aEE80CdD5007b6F8"
  ],
  "numDeployments": 1,
  "solcInputHash": "e3994f3cb37c659752947cba1eda4385",
  "bytecode": "0x60e0604052731820a4b7618bde71dce8cdc73aab6c95905fad246000806101000a81548173ffffffffffffffffffffffffffffffffffffffff021916908373ffffffffffffffffffffffffffffffffffffffff1602179055503480156200006557600080fd5b50604051620047c4380380620047c483398181016040528101906200008b919062000685565b6040518060400160405280600b81526020017f526577617264546f6b656e0000000000000000000000000000000000000000008152506040518060400160405280600581526020017f50484252570000000000000000000000000000000000000000000000000000008152508585858585858582600190816200010f919062000961565b50816002908162000121919062000961565b5080600590805190602001906200013a929190620003e9565b5060005b8151811015620001d35760016006600084848151811062000164576200016362000a48565b5b602002602001015173ffffffffffffffffffffffffffffffffffffffff1673ffffffffffffffffffffffffffffffffffffffff16815260200190815260200160002060006101000a81548160ff0219169083151502179055508080620001ca9062000aa6565b9150506200013e565b5060008054906101000a900473ffffffffffffffffffffffffffffffffffffffff1673ffffffffffffffffffffffffffffffffffffffff166329965a1d307faea199e31a596269b42cdafd93407f14436db6e4cad65417994c2eb37381e05a306040518463ffffffff1660e01b8152600401620002539392919062000b1f565b600060405180830381600087803b1580156200026e57600080fd5b505af115801562000283573d6000803e3d6000fd5b5050505060008054906101000a900473ffffffffffffffffffffffffffffffffffffffff1673ffffffffffffffffffffffffffffffffffffffff166329965a1d307fac7fbab5f54a3ca8194167523c6753bfeb96a445279294b6125b68cce2177054306040518463ffffffff1660e01b8152600401620003069392919062000b1f565b600060405180830381600087803b1580156200032157600080fd5b505af115801562000336573d6000803e3d6000fd5b505050505050508273ffffffffffffffffffffffffffffffffffffffff1660808173ffffffffffffffffffffffffffffffffffffffff16815250508173ffffffffffffffffffffffffffffffffffffffff1660a08173ffffffffffffffffffffffffffffffffffffffff16815250508073ffffffffffffffffffffffffffffffffffffffff1660c08173ffffffffffffffffffffffffffffffffffffffff16815250505050505050505050505062000b5c565b82805482825590600052602060002090810192821562000465579160200282015b82811115620004645782518260006101000a81548173ffffffffffffffffffffffffffffffffffffffff021916908373ffffffffffffffffffffffffffffffffffffffff160217905550916020019190600101906200040a565b5b50905062000474919062000478565b5090565b5b808211156200049357600081600090555060010162000479565b5090565b6000604051905090565b600080fd5b600080fd5b600080fd5b6000601f19601f8301169050919050565b7f4e487b7100000000000000000000000000000000000000000000000000000000600052604160045260246000fd5b620004fb82620004b0565b810181811067ffffffffffffffff821117156200051d576200051c620004c1565b5b80604052505050565b60006200053262000497565b9050620005408282620004f0565b919050565b600067ffffffffffffffff821115620005635762000562620004c1565b5b602082029050602081019050919050565b600080fd5b600073ffffffffffffffffffffffffffffffffffffffff82169050919050565b6000620005a68262000579565b9050919050565b620005b88162000599565b8114620005c457600080fd5b50565b600081519050620005d881620005ad565b92915050565b6000620005f5620005ef8462000545565b62000526565b905080838252602082019050602084028301858111156200061b576200061a62000574565b5b835b81811015620006485780620006338882620005c7565b8452602084019350506020810190506200061d565b5050509392505050565b600082601f8301126200066a5762000669620004ab565b5b81516200067c848260208601620005de565b91505092915050565b60008060008060808587031215620006a257620006a1620004a1565b5b600085015167ffffffffffffffff811115620006c357620006c2620004a6565b5b620006d18782880162000652565b9450506020620006e487828801620005c7565b9350506040620006f787828801620005c7565b92505060606200070a87828801620005c7565b91505092959194509250565b600081519050919050565b7f4e487b7100000000000000000000000000000000000000000000000000000000600052602260045260246000fd5b600060028204905060018216806200076957607f821691505b6020821081036200077f576200077e62000721565b5b50919050565b60008190508160005260206000209050919050565b60006020601f8301049050919050565b600082821b905092915050565b600060088302620007e97fffffffffffffffffffffffffffffffffffffffffffffffffffffffffffffffff82620007aa565b620007f58683620007aa565b95508019841693508086168417925050509392505050565b6000819050919050565b6000819050919050565b6000620008426200083c62000836846200080d565b62000817565b6200080d565b9050919050565b6000819050919050565b6200085e8362000821565b620008766200086d8262000849565b848454620007b7565b825550505050565b600090565b6200088d6200087e565b6200089a81848462000853565b505050565b5b81811015620008c257620008b660008262000883565b600181019050620008a0565b5050565b601f8211156200091157620008db8162000785565b620008e6846200079a565b81016020851015620008f6578190505b6200090e62000905856200079a565b8301826200089f565b50505b505050565b600082821c905092915050565b6000620009366000198460080262000916565b1980831691505092915050565b600062000951838362000923565b9150826002028217905092915050565b6200096c8262000716565b67ffffffffffffffff811115620009885762000987620004c1565b5b62000994825462000750565b620009a1828285620008c6565b600060209050601f831160018114620009d95760008415620009c4578287015190505b620009d0858262000943565b86555062000a40565b601f198416620009e98662000785565b60005b8281101562000a1357848901518255600182019150602085019450602081019050620009ec565b8683101562000a33578489015162000a2f601f89168262000923565b8355505b6001600288020188555050505b505050505050565b7f4e487b7100000000000000000000000000000000000000000000000000000000600052603260045260246000fd5b7f4e487b7100000000000000000000000000000000000000000000000000000000600052601160045260246000fd5b600062000ab3826200080d565b91507fffffffffffffffffffffffffffffffffffffffffffffffffffffffffffffffff820362000ae85762000ae762000a77565b5b600182019050919050565b62000afe8162000599565b82525050565b6000819050919050565b62000b198162000b04565b82525050565b600060608201905062000b36600083018662000af3565b62000b45602083018562000b0e565b62000b54604083018462000af3565b949350505050565b60805160a05160c051613c2a62000b9a6000396000818161076b015261142101526000818161057201526113e5015260006105960152613c2a6000f3fe608060405234801561001057600080fd5b50600436106101425760003560e01c80637c6b74d2116100b8578063a9059cbb1161007c578063a9059cbb14610355578063d95b637114610385578063dd62ed3e146103b5578063fad8b32a146103e5578063fc673c4f14610401578063fe9d93031461041d57610142565b80637c6b74d2146102c5578063959b8c3f146102e357806395d89b41146102ff578063999de9cc1461031d5780639bd9bbc61461033957610142565b806318160ddd1161010a57806318160ddd146101ef57806323b872dd1461020d578063313ce5671461023d578063556f0dc71461025b57806362ad1b831461027957806370a082311461029557610142565b806306e485381461014757806306fdde0314610165578063095ea7b3146101835780630c2ca751146101b35780630f908e82146101d1575b600080fd5b61014f610439565b60405161015c9190612631565b60405180910390f35b61016d6104c7565b60405161017a91906126e3565b60405180910390f35b61019d6004803603810190610198919061277b565b610559565b6040516101aa91906127d6565b60405180910390f35b6101bb610570565b6040516101c89190612850565b60405180910390f35b6101d9610594565b6040516101e6919061288c565b60405180910390f35b6101f76105b8565b60405161020491906128b6565b60405180910390f35b610227600480360381019061022291906128d1565b6105c2565b60405161023491906127d6565b60405180910390f35b610245610622565b6040516102529190612940565b60405180910390f35b61026361062b565b60405161027091906128b6565b60405180910390f35b610293600480360381019061028e91906129c0565b610634565b005b6102af60048036038101906102aa9190612a7c565b610720565b6040516102bc91906128b6565b60405180910390f35b6102cd610769565b6040516102da9190612aca565b60405180910390f35b6102fd60048036038101906102f89190612a7c565b61078d565b005b6103076109d1565b60405161031491906126e3565b60405180910390f35b61033760048036038101906103329190612ae5565b610a63565b005b610353600480360381019061034e9190612cbc565b610bb9565b005b61036f600480360381019061036a919061277b565b610c13565b60405161037c91906127d6565b60405180910390f35b61039f600480360381019061039a9190612d2b565b610c71565b6040516103ac91906127d6565b60405180910390f35b6103cf60048036038101906103ca9190612d2b565b610e21565b6040516103dc91906128b6565b60405180910390f35b6103ff60048036038101906103fa9190612a7c565b610ea8565b005b61041b60048036038101906104169190612ae5565b6110ec565b005b61043760048036038101906104329190612d6b565b6111d4565b005b606060058054806020026020016040519081016040528092919081815260200182805480156104bd57602002820191906000526020600020905b8160009054906101000a900473ffffffffffffffffffffffffffffffffffffffff1673ffffffffffffffffffffffffffffffffffffffff1681526020019060010190808311610473575b5050505050905090565b6060600180546104d690612dfa565b80601f016020809104026020016040519081016040528092919081815260200182805461050290612dfa565b801561054f5780601f106105245761010080835404028352916020019161054f565b820191906000526020600020905b81548152906001019060200180831161053257829003601f168201915b5050505050905090565b6000610566338484611239565b6001905092915050565b7f000000000000000000000000000000000000000000000000000000000000000081565b7f000000000000000000000000000000000000000000000000000000000000000081565b6000600354905090565b6000826105ce816113e0565b61060d576040517f08c379a000000000000000000000000000000000000000000000000000000000815260040161060490612e77565b60405180910390fd5b6106188585856114f6565b9150509392505050565b60006012905090565b60006001905090565b8661063f8133610c71565b61067e576040517f08c379a000000000000000000000000000000000000000000000000000000000815260040161067590612f09565b60405180910390fd5b6107163389898989898080601f016020809104026020016040519081016040528093929190818152602001838380828437600081840152601f19601f8201169050808301925050505050505088888080601f016020809104026020016040519081016040528093929190818152602001838380828437600081840152601f19601f82011690508083019250505050505050600161172e565b5050505050505050565b6000600460008373ffffffffffffffffffffffffffffffffffffffff1673ffffffffffffffffffffffffffffffffffffffff168152602001908152602001600020549050919050565b7f000000000000000000000000000000000000000000000000000000000000000081565b8073ffffffffffffffffffffffffffffffffffffffff163373ffffffffffffffffffffffffffffffffffffffff16036107fb576040517f08c379a00000000000000000000000000000000000000000000000000000000081526004016107f290612f9b565b60405180910390fd5b600660008273ffffffffffffffffffffffffffffffffffffffff1673ffffffffffffffffffffffffffffffffffffffff16815260200190815260200160002060009054906101000a900460ff16156108de57600860003373ffffffffffffffffffffffffffffffffffffffff1673ffffffffffffffffffffffffffffffffffffffff16815260200190815260200160002060008273ffffffffffffffffffffffffffffffffffffffff1673ffffffffffffffffffffffffffffffffffffffff16815260200190815260200160002060006101000a81549060ff0219169055610974565b6001600760003373ffffffffffffffffffffffffffffffffffffffff1673ffffffffffffffffffffffffffffffffffffffff16815260200190815260200160002060008373ffffffffffffffffffffffffffffffffffffffff1673ffffffffffffffffffffffffffffffffffffffff16815260200190815260200160002060006101000a81548160ff0219169083151502179055505b3373ffffffffffffffffffffffffffffffffffffffff168173ffffffffffffffffffffffffffffffffffffffff167ff4caeb2d6ca8932a215a353d0703c326ec2d81fc68170f320eb2ab49e9df61f960405160405180910390a350565b6060600280546109e090612dfa565b80601f0160208091040260200160405190810160405280929190818152602001828054610a0c90612dfa565b8015610a595780601f10610a2e57610100808354040283529160200191610a59565b820191906000526020600020905b815481529060010190602001808311610a3c57829003601f168201915b5050505050905090565b85610a6e8133610c71565b610aad576040517f08c379a0000000000000000000000000000000000000000000000000000000008152600401610aa490612f09565b60405180910390fd5b8673ffffffffffffffffffffffffffffffffffffffff163373ffffffffffffffffffffffffffffffffffffffff1603610b1b576040517f08c379a0000000000000000000000000000000000000000000000000000000008152600401610b1290613007565b60405180910390fd5b610bb033888888888080601f016020809104026020016040519081016040528093929190818152602001838380828437600081840152601f19601f8201169050808301925050505050505087878080601f016020809104026020016040519081016040528093929190818152602001838380828437600081840152601f19601f8201169050808301925050505050505061181e565b50505050505050565b82610bc3816113e0565b610c02576040517f08c379a0000000000000000000000000000000000000000000000000000000008152600401610bf990612e77565b60405180910390fd5b610c0d848484611aa6565b50505050565b600082610c1f816113e0565b610c5e576040517f08c379a0000000000000000000000000000000000000000000000000000000008152600401610c5590612e77565b60405180910390fd5b610c688484611aca565b91505092915050565b60008173ffffffffffffffffffffffffffffffffffffffff168373ffffffffffffffffffffffffffffffffffffffff161480610d335750600760008473ffffffffffffffffffffffffffffffffffffffff1673ffffffffffffffffffffffffffffffffffffffff16815260200190815260200160002060008373ffffffffffffffffffffffffffffffffffffffff1673ffffffffffffffffffffffffffffffffffffffff16815260200190815260200160002060009054906101000a900460ff165b80610e195750600660008373ffffffffffffffffffffffffffffffffffffffff1673ffffffffffffffffffffffffffffffffffffffff16815260200190815260200160002060009054906101000a900460ff168015610e185750600860008473ffffffffffffffffffffffffffffffffffffffff1673ffffffffffffffffffffffffffffffffffffffff16815260200190815260200160002060008373ffffffffffffffffffffffffffffffffffffffff1673ffffffffffffffffffffffffffffffffffffffff16815260200190815260200160002060009054906101000a900460ff165b5b905092915050565b6000600960008473ffffffffffffffffffffffffffffffffffffffff1673ffffffffffffffffffffffffffffffffffffffff16815260200190815260200160002060008373ffffffffffffffffffffffffffffffffffffffff1673ffffffffffffffffffffffffffffffffffffffff16815260200190815260200160002054905092915050565b3373ffffffffffffffffffffffffffffffffffffffff168173ffffffffffffffffffffffffffffffffffffffff1603610f16576040517f08c379a0000000000000000000000000000000000000000000000000000000008152600401610f0d90613099565b60405180910390fd5b600660008273ffffffffffffffffffffffffffffffffffffffff1673ffffffffffffffffffffffffffffffffffffffff16815260200190815260200160002060009054906101000a900460ff1615611002576001600860003373ffffffffffffffffffffffffffffffffffffffff1673ffffffffffffffffffffffffffffffffffffffff16815260200190815260200160002060008373ffffffffffffffffffffffffffffffffffffffff1673ffffffffffffffffffffffffffffffffffffffff16815260200190815260200160002060006101000a81548160ff02191690831515021790555061108f565b600760003373ffffffffffffffffffffffffffffffffffffffff1673ffffffffffffffffffffffffffffffffffffffff16815260200190815260200160002060008273ffffffffffffffffffffffffffffffffffffffff1673ffffffffffffffffffffffffffffffffffffffff16815260200190815260200160002060006101000a81549060ff02191690555b3373ffffffffffffffffffffffffffffffffffffffff168173ffffffffffffffffffffffffffffffffffffffff167f50546e66e5f44d728365dc3908c63bc5cfeeab470722c1677e3073a6ac294aa160405160405180910390a350565b856110f78133610c71565b611136576040517f08c379a000000000000000000000000000000000000000000000000000000000815260040161112d90612f09565b60405180910390fd5b6111cb33888888888080601f016020809104026020016040519081016040528093929190818152602001838380828437600081840152601f19601f8201169050808301925050505050505087878080601f016020809104026020016040519081016040528093929190818152602001838380828437600081840152601f19601f82011690508083019250505050505050611bc0565b50505050505050565b61123433338585858080601f016020809104026020016040519081016040528093929190818152602001838380828437600081840152601f19601f8201169050808301925050505050505060405180602001604052806000815250611bc0565b505050565b6112588373ffffffffffffffffffffffffffffffffffffffff16611e46565b611297576040517f08c379a000000000000000000000000000000000000000000000000000000000815260040161128e9061312b565b60405180910390fd5b6112b68273ffffffffffffffffffffffffffffffffffffffff16611e46565b6112f5576040517f08c379a00000000000000000000000000000000000000000000000000000000081526004016112ec906131bd565b60405180910390fd5b80600960008573ffffffffffffffffffffffffffffffffffffffff1673ffffffffffffffffffffffffffffffffffffffff16815260200190815260200160002060008473ffffffffffffffffffffffffffffffffffffffff1673ffffffffffffffffffffffffffffffffffffffff168152602001908152602001600020819055508173ffffffffffffffffffffffffffffffffffffffff168373ffffffffffffffffffffffffffffffffffffffff167f8c5be1e5ebec7d5bd14f71427d1e84f3dd0314c0f7b2291e5b200ac8c7c3b925836040516113d391906128b6565b60405180910390a3505050565b6000807f000000000000000000000000000000000000000000000000000000000000000073ffffffffffffffffffffffffffffffffffffffff1663e1661eff7f00000000000000000000000000000000000000000000000000000000000000008560405160200161145090613234565b604051602081830303815290604052805190602001206040518463ffffffff1660e01b815260040161148493929190613271565b602060405180830381865afa1580156114a1573d6000803e3d6000fd5b505050506040513d601f19601f820116820180604052508101906114c591906132d4565b90506040516020016114d69061334d565b604051602081830303815290604052805190602001208114915050919050565b60006115178473ffffffffffffffffffffffffffffffffffffffff16611e46565b611556576040517f08c379a000000000000000000000000000000000000000000000000000000000815260040161154d906133d4565b60405180910390fd5b6115758373ffffffffffffffffffffffffffffffffffffffff16611e46565b6115b4576040517f08c379a00000000000000000000000000000000000000000000000000000000081526004016115ab906133d4565b60405180910390fd5b60003390506115e5818686866040518060200160405280600081525060405180602001604052806000815250611e7f565b60008061167785600960008a73ffffffffffffffffffffffffffffffffffffffff1673ffffffffffffffffffffffffffffffffffffffff16815260200190815260200160002060008673ffffffffffffffffffffffffffffffffffffffff1673ffffffffffffffffffffffffffffffffffffffff16815260200190815260200160002054611fe690919063ffffffff16565b91509150816116bb576040517f08c379a00000000000000000000000000000000000000000000000000000000081526004016116b290613440565b60405180910390fd5b6116c6878483611239565b6116f283888888604051806020016040528060008152506040518060200160405280600081525061200e565b61172083888888604051806020016040528060008152506040518060200160405280600081525060006122b8565b600193505050509392505050565b61174d8673ffffffffffffffffffffffffffffffffffffffff16611e46565b61178c576040517f08c379a0000000000000000000000000000000000000000000000000000000008152600401611783906134d2565b60405180910390fd5b6117ab8573ffffffffffffffffffffffffffffffffffffffff16611e46565b6117ea576040517f08c379a00000000000000000000000000000000000000000000000000000000081526004016117e190613564565b60405180910390fd5b6117f8878787878787611e7f565b61180687878787878761200e565b611815878787878787876122b8565b50505050505050565b61183d8473ffffffffffffffffffffffffffffffffffffffff16611e46565b61187c576040517f08c379a0000000000000000000000000000000000000000000000000000000008152600401611873906135f6565b60405180910390fd5b6000806118d185600460008973ffffffffffffffffffffffffffffffffffffffff1673ffffffffffffffffffffffffffffffffffffffff1681526020019081526020016000205461248a90919063ffffffff16565b9150915081611915576040517f08c379a000000000000000000000000000000000000000000000000000000000815260040161190c90613688565b60405180910390fd5b80600460008873ffffffffffffffffffffffffffffffffffffffff1673ffffffffffffffffffffffffffffffffffffffff1681526020019081526020016000208190555061196e8560035461248a90919063ffffffff16565b8092508193505050816119b6576040517f08c379a00000000000000000000000000000000000000000000000000000000081526004016119ad906136f4565b60405180910390fd5b806003819055506119ce8760008888888860016122b8565b8573ffffffffffffffffffffffffffffffffffffffff168773ffffffffffffffffffffffffffffffffffffffff167f2fe5be0146f74c5bce36c0b80911af6c7d86ff27e89d5cfa61fc681327954e5d878787604051611a2f93929190613769565b60405180910390a38573ffffffffffffffffffffffffffffffffffffffff16600073ffffffffffffffffffffffffffffffffffffffff167fddf252ad1be2c89b69c2b068fc378daa952ba7f163c4a11628f55a4df523b3ef87604051611a9591906128b6565b60405180910390a350505050505050565b611ac5333385858560405180602001604052806000815250600161172e565b505050565b6000611aeb8373ffffffffffffffffffffffffffffffffffffffff16611e46565b611b2a576040517f08c379a0000000000000000000000000000000000000000000000000000000008152600401611b2190613564565b60405180910390fd5b6000339050611b5b818286866040518060200160405280600081525060405180602001604052806000815250611e7f565b611b8781828686604051806020016040528060008152506040518060200160405280600081525061200e565b611bb581828686604051806020016040528060008152506040518060200160405280600081525060006122b8565b600191505092915050565b611bdf8473ffffffffffffffffffffffffffffffffffffffff16611e46565b611c1e576040517f08c379a0000000000000000000000000000000000000000000000000000000008152600401611c1590613820565b60405180910390fd5b611c2d85856000868686611e7f565b600080611c8285600460008973ffffffffffffffffffffffffffffffffffffffff1673ffffffffffffffffffffffffffffffffffffffff16815260200190815260200160002054611fe690919063ffffffff16565b9150915081611cc6576040517f08c379a0000000000000000000000000000000000000000000000000000000008152600401611cbd906138b2565b60405180910390fd5b80600460008873ffffffffffffffffffffffffffffffffffffffff1673ffffffffffffffffffffffffffffffffffffffff16815260200190815260200160002081905550611d1f85600354611fe690919063ffffffff16565b809250819350505081611d67576040517f08c379a0000000000000000000000000000000000000000000000000000000008152600401611d5e90613944565b60405180910390fd5b806003819055508573ffffffffffffffffffffffffffffffffffffffff168773ffffffffffffffffffffffffffffffffffffffff167fa78a9be3a7b862d26933ad85fb11d80ef66b8f972d7cbba06621d583943a4098878787604051611dcf93929190613769565b60405180910390a3600073ffffffffffffffffffffffffffffffffffffffff168673ffffffffffffffffffffffffffffffffffffffff167fddf252ad1be2c89b69c2b068fc378daa952ba7f163c4a11628f55a4df523b3ef87604051611e3591906128b6565b60405180910390a350505050505050565b60008073ffffffffffffffffffffffffffffffffffffffff168273ffffffffffffffffffffffffffffffffffffffff1614159050919050565b60008060009054906101000a900473ffffffffffffffffffffffffffffffffffffffff1673ffffffffffffffffffffffffffffffffffffffff1663aabbb8ca877f29ddb589b1fb5fc7cf394961c1adf5f8c6454761adf795e67fe149f658abe89560001b6040518363ffffffff1660e01b8152600401611f00929190613964565b602060405180830381865afa158015611f1d573d6000803e3d6000fd5b505050506040513d601f19601f82011682018060405250810190611f4191906139a2565b9050611f628173ffffffffffffffffffffffffffffffffffffffff16611e46565b15611fdd578073ffffffffffffffffffffffffffffffffffffffff166375ab97828888888888886040518763ffffffff1660e01b8152600401611faa969594939291906139cf565b600060405180830381600087803b158015611fc457600080fd5b505af1158015611fd8573d6000803e3d6000fd5b505050505b50505050505050565b60008083831115611ffd5760008091509150612007565b6001838503915091505b9250929050565b60008061206385600460008a73ffffffffffffffffffffffffffffffffffffffff1673ffffffffffffffffffffffffffffffffffffffff16815260200190815260200160002054611fe690919063ffffffff16565b91509150816120a7576040517f08c379a000000000000000000000000000000000000000000000000000000000815260040161209e906138b2565b60405180910390fd5b80600460008973ffffffffffffffffffffffffffffffffffffffff1673ffffffffffffffffffffffffffffffffffffffff1681526020019081526020016000208190555061213d85600460008973ffffffffffffffffffffffffffffffffffffffff1673ffffffffffffffffffffffffffffffffffffffff1681526020019081526020016000205461248a90919063ffffffff16565b809250819350505081612185576040517f08c379a000000000000000000000000000000000000000000000000000000000815260040161217c90613ab0565b60405180910390fd5b80600460008873ffffffffffffffffffffffffffffffffffffffff1673ffffffffffffffffffffffffffffffffffffffff168152602001908152602001600020819055508573ffffffffffffffffffffffffffffffffffffffff168773ffffffffffffffffffffffffffffffffffffffff167fddf252ad1be2c89b69c2b068fc378daa952ba7f163c4a11628f55a4df523b3ef8760405161222691906128b6565b60405180910390a38573ffffffffffffffffffffffffffffffffffffffff168773ffffffffffffffffffffffffffffffffffffffff168973ffffffffffffffffffffffffffffffffffffffff167f06b541ddaa720db2b10a4d0cdac39b8d360425fc073085fac19bc826146779878888886040516122a693929190613769565b60405180910390a45050505050505050565b60008060009054906101000a900473ffffffffffffffffffffffffffffffffffffffff1673ffffffffffffffffffffffffffffffffffffffff1663aabbb8ca877fb281fc8c12954d22544db45de3159a39272895b169a852b314f9cc762e44c53b60001b6040518363ffffffff1660e01b8152600401612339929190613964565b602060405180830381865afa158015612356573d6000803e3d6000fd5b505050506040513d601f19601f8201168201806040525081019061237a91906139a2565b905061239b8173ffffffffffffffffffffffffffffffffffffffff16611e46565b15612419578073ffffffffffffffffffffffffffffffffffffffff166223de298989898989896040518763ffffffff1660e01b81526004016123e2969594939291906139cf565b600060405180830381600087803b1580156123fc57600080fd5b505af1158015612410573d6000803e3d6000fd5b50505050612480565b811561247f5761243e8673ffffffffffffffffffffffffffffffffffffffff166124b9565b1561247e576040517f08c379a000000000000000000000000000000000000000000000000000000000815260040161247590613b68565b60405180910390fd5b5b5b5050505050505050565b60008060008385019050848110156124a95760008092509250506124b2565b60018192509250505b9250929050565b60003373ffffffffffffffffffffffffffffffffffffffff163273ffffffffffffffffffffffffffffffffffffffff1614612529576040517f08c379a000000000000000000000000000000000000000000000000000000000815260040161252090613bd4565b60405180910390fd5b6000823b905060008163ffffffff1611915050919050565b600081519050919050565b600082825260208201905092915050565b6000819050602082019050919050565b600073ffffffffffffffffffffffffffffffffffffffff82169050919050565b60006125988261256d565b9050919050565b6125a88161258d565b82525050565b60006125ba838361259f565b60208301905092915050565b6000602082019050919050565b60006125de82612541565b6125e8818561254c565b93506125f38361255d565b8060005b8381101561262457815161260b88826125ae565b9750612616836125c6565b9250506001810190506125f7565b5085935050505092915050565b6000602082019050818103600083015261264b81846125d3565b905092915050565b600081519050919050565b600082825260208201905092915050565b60005b8381101561268d578082015181840152602081019050612672565b60008484015250505050565b6000601f19601f8301169050919050565b60006126b582612653565b6126bf818561265e565b93506126cf81856020860161266f565b6126d881612699565b840191505092915050565b600060208201905081810360008301526126fd81846126aa565b905092915050565b6000604051905090565b600080fd5b600080fd5b6127228161258d565b811461272d57600080fd5b50565b60008135905061273f81612719565b92915050565b6000819050919050565b61275881612745565b811461276357600080fd5b50565b6000813590506127758161274f565b92915050565b600080604083850312156127925761279161270f565b5b60006127a085828601612730565b92505060206127b185828601612766565b9150509250929050565b60008115159050919050565b6127d0816127bb565b82525050565b60006020820190506127eb60008301846127c7565b92915050565b6000819050919050565b600061281661281161280c8461256d565b6127f1565b61256d565b9050919050565b6000612828826127fb565b9050919050565b600061283a8261281d565b9050919050565b61284a8161282f565b82525050565b60006020820190506128656000830184612841565b92915050565b60006128768261281d565b9050919050565b6128868161286b565b82525050565b60006020820190506128a1600083018461287d565b92915050565b6128b081612745565b82525050565b60006020820190506128cb60008301846128a7565b92915050565b6000806000606084860312156128ea576128e961270f565b5b60006128f886828701612730565b935050602061290986828701612730565b925050604061291a86828701612766565b9150509250925092565b600060ff82169050919050565b61293a81612924565b82525050565b60006020820190506129556000830184612931565b92915050565b600080fd5b600080fd5b600080fd5b60008083601f8401126129805761297f61295b565b5b8235905067ffffffffffffffff81111561299d5761299c612960565b5b6020830191508360018202830111156129b9576129b8612965565b5b9250929050565b600080600080600080600060a0888a0312156129df576129de61270f565b5b60006129ed8a828b01612730565b97505060206129fe8a828b01612730565b9650506040612a0f8a828b01612766565b955050606088013567ffffffffffffffff811115612a3057612a2f612714565b5b612a3c8a828b0161296a565b9450945050608088013567ffffffffffffffff811115612a5f57612a5e612714565b5b612a6b8a828b0161296a565b925092505092959891949750929550565b600060208284031215612a9257612a9161270f565b5b6000612aa084828501612730565b91505092915050565b6000612ab48261281d565b9050919050565b612ac481612aa9565b82525050565b6000602082019050612adf6000830184612abb565b92915050565b60008060008060008060808789031215612b0257612b0161270f565b5b6000612b1089828a01612730565b9650506020612b2189828a01612766565b955050604087013567ffffffffffffffff811115612b4257612b41612714565b5b612b4e89828a0161296a565b9450945050606087013567ffffffffffffffff811115612b7157612b70612714565b5b612b7d89828a0161296a565b92509250509295509295509295565b600080fd5b7f4e487b7100000000000000000000000000000000000000000000000000000000600052604160045260246000fd5b612bc982612699565b810181811067ffffffffffffffff82111715612be857612be7612b91565b5b80604052505050565b6000612bfb612705565b9050612c078282612bc0565b919050565b600067ffffffffffffffff821115612c2757612c26612b91565b5b612c3082612699565b9050602081019050919050565b82818337600083830152505050565b6000612c5f612c5a84612c0c565b612bf1565b905082815260208101848484011115612c7b57612c7a612b8c565b5b612c86848285612c3d565b509392505050565b600082601f830112612ca357612ca261295b565b5b8135612cb3848260208601612c4c565b91505092915050565b600080600060608486031215612cd557612cd461270f565b5b6000612ce386828701612730565b9350506020612cf486828701612766565b925050604084013567ffffffffffffffff811115612d1557612d14612714565b5b612d2186828701612c8e565b9150509250925092565b60008060408385031215612d4257612d4161270f565b5b6000612d5085828601612730565b9250506020612d6185828601612730565b9150509250929050565b600080600060408486031215612d8457612d8361270f565b5b6000612d9286828701612766565b935050602084013567ffffffffffffffff811115612db357612db2612714565b5b612dbf8682870161296a565b92509250509250925092565b7f4e487b7100000000000000000000000000000000000000000000000000000000600052602260045260246000fd5b60006002820490506001821680612e1257607f821691505b602082108103612e2557612e24612dcb565b5b50919050565b7f4572726f723a20526563697069656e74206e6f742061206d656d626572000000600082015250565b6000612e61601d8361265e565b9150612e6c82612e2b565b602082019050919050565b60006020820190508181036000830152612e9081612e54565b9050919050565b7f4552433737373a2043616c6c6572206973206e6f7420616e206f70657261746f60008201527f7220666f7220686f6c6465720000000000000000000000000000000000000000602082015250565b6000612ef3602c8361265e565b9150612efe82612e97565b604082019050919050565b60006020820190508181036000830152612f2281612ee6565b9050919050565b7f4552433737373a2043616e6e6f7420617574686f72697a652073656c6620617360008201527f20616e206f70657261746f720000000000000000000000000000000000000000602082015250565b6000612f85602c8361265e565b9150612f9082612f29565b604082019050919050565b60006020820190508181036000830152612fb481612f78565b9050919050565b7f4552433737373a2043616e6e6f74206d696e7420666f7220796f757273656c66600082015250565b6000612ff160208361265e565b9150612ffc82612fbb565b602082019050919050565b6000602082019050818103600083015261302081612fe4565b9050919050565b7f4552433737373a2043616e6e6f74207265766f6b652073656c6620617320616e60008201527f206f70657261746f720000000000000000000000000000000000000000000000602082015250565b600061308360298361265e565b915061308e82613027565b604082019050919050565b600060208201905081810360008301526130b281613076565b9050919050565b7f45524332303a204f776e65722063616e6e6f74206265207a65726f206164647260008201527f6573730000000000000000000000000000000000000000000000000000000000602082015250565b600061311560238361265e565b9150613120826130b9565b604082019050919050565b6000602082019050818103600083015261314481613108565b9050919050565b7f45524332303a205370656e6465722063616e6e6f74206265207a65726f20616460008201527f6472657373000000000000000000000000000000000000000000000000000000602082015250565b60006131a760258361265e565b91506131b28261314b565b604082019050919050565b600060208201905081810360008301526131d68161319a565b9050919050565b600081905092915050565b7f6d656d6265727368697000000000000000000000000000000000000000000000600082015250565b600061321e600a836131dd565b9150613229826131e8565b600a82019050919050565b600061323f82613211565b9150819050919050565b6132528161258d565b82525050565b6000819050919050565b61326b81613258565b82525050565b60006060820190506132866000830186613249565b6132936020830185613249565b6132a06040830184613262565b949350505050565b6132b181613258565b81146132bc57600080fd5b50565b6000815190506132ce816132a8565b92915050565b6000602082840312156132ea576132e961270f565b5b60006132f8848285016132bf565b91505092915050565b7f7472756500000000000000000000000000000000000000000000000000000000600082015250565b60006133376004836131dd565b915061334282613301565b600482019050919050565b60006133588261332a565b9150819050919050565b7f45524332303a20546f6b656e7320686f6c6465722063616e6e6f74206265207a60008201527f65726f2061646472657373000000000000000000000000000000000000000000602082015250565b60006133be602b8361265e565b91506133c982613362565b604082019050919050565b600060208201905081810360008301526133ed816133b1565b9050919050565b7f45524332303a20496e73756666696369656e7420616c6c6f77616e6365000000600082015250565b600061342a601d8361265e565b9150613435826133f4565b602082019050919050565b600060208201905081810360008301526134598161341d565b9050919050565b7f4552433737373a2053656e6465722063616e6e6f74206265207a65726f20616460008201527f6472657373000000000000000000000000000000000000000000000000000000602082015250565b60006134bc60258361265e565b91506134c782613460565b604082019050919050565b600060208201905081810360008301526134eb816134af565b9050919050565b7f4552433737373a20526563697069656e742063616e6e6f74206265207a65726f60008201527f2061646472657373000000000000000000000000000000000000000000000000602082015250565b600061354e60288361265e565b9150613559826134f2565b604082019050919050565b6000602082019050818103600083015261357d81613541565b9050919050565b7f4552433737373a2043616e6e6f74206d696e7420746f207a65726f206164647260008201527f6573730000000000000000000000000000000000000000000000000000000000602082015250565b60006135e060238361265e565b91506135eb82613584565b604082019050919050565b6000602082019050818103600083015261360f816135d3565b9050919050565b7f4552433737373a2053656e64657227732062616c616e6365206f766572666c6f60008201527f7765640000000000000000000000000000000000000000000000000000000000602082015250565b600061367260238361265e565b915061367d82613616565b604082019050919050565b600060208201905081810360008301526136a181613665565b9050919050565b7f4552433737373a20546f74616c20737570706c79206f766572666c6f77656400600082015250565b60006136de601f8361265e565b91506136e9826136a8565b602082019050919050565b6000602082019050818103600083015261370d816136d1565b9050919050565b600081519050919050565b600082825260208201905092915050565b600061373b82613714565b613745818561371f565b935061375581856020860161266f565b61375e81612699565b840191505092915050565b600060608201905061377e60008301866128a7565b81810360208301526137908185613730565b905081810360408301526137a48184613730565b9050949350505050565b7f4552433737373a2043616e6e6f74206275726e2066726f6d207a65726f20616460008201527f6472657373000000000000000000000000000000000000000000000000000000602082015250565b600061380a60258361265e565b9150613815826137ae565b604082019050919050565b60006020820190508181036000830152613839816137fd565b9050919050565b7f4552433737373a2053656e64657227732062616c616e636520697320696e737560008201527f6666696369656e74000000000000000000000000000000000000000000000000602082015250565b600061389c60288361265e565b91506138a782613840565b604082019050919050565b600060208201905081810360008301526138cb8161388f565b9050919050565b7f4552433737373a20546f74616c20737570706c7920697320657868617573746560008201527f6400000000000000000000000000000000000000000000000000000000000000602082015250565b600061392e60218361265e565b9150613939826138d2565b604082019050919050565b6000602082019050818103600083015261395d81613921565b9050919050565b60006040820190506139796000830185613249565b6139866020830184613262565b9392505050565b60008151905061399c81612719565b92915050565b6000602082840312156139b8576139b761270f565b5b60006139c68482850161398d565b91505092915050565b600060c0820190506139e46000830189613249565b6139f16020830188613249565b6139fe6040830187613249565b613a0b60608301866128a7565b8181036080830152613a1d8185613730565b905081810360a0830152613a318184613730565b9050979650505050505050565b7f4552433737373a20526563697069656e7427732062616c616e6365206f76657260008201527f666c6f7765640000000000000000000000000000000000000000000000000000602082015250565b6000613a9a60268361265e565b9150613aa582613a3e565b604082019050919050565b60006020820190508181036000830152613ac981613a8d565b9050919050565b7f4552433737373a20546f6b656e7320726563697069656e7420636f6e7472616360008201527f7420686173206e6f20696d706c656d656e74657220666f72204552433737375460208201527f6f6b656e73526563697069656e74000000000000000000000000000000000000604082015250565b6000613b52604e8361265e565b9150613b5d82613ad0565b606082019050919050565b60006020820190508181036000830152613b8181613b45565b9050919050565b7f4e6f7420454f4100000000000000000000000000000000000000000000000000600082015250565b6000613bbe60078361265e565b9150613bc982613b88565b602082019050919050565b60006020820190508181036000830152613bed81613bb1565b905091905056fea2646970667358221220837a70fac9342a71303e3f76da1f60525a9fa7897e11bb252c5558e71195df4064736f6c63430008140033",
  "devdoc": {
    "events": {
      "Approval(address,address,uint256)": {
        "details": "Emitted when the allowance of a `spender` for an `owner` is set by a call to {approve}. `value` is the new allowance."
      },
      "AuthorizedOperator(address,address)": {
        "details": "Emitted when `operator` is made operator for `tokenHolder`."
      },
      "Burned(address,address,uint256,bytes,bytes)": {
        "details": "Emitted when `operator` destroys `amount` tokens from `account`. Note that some additional user `data` and `operatorData` can be logged in the event."
      },
      "Minted(address,address,uint256,bytes,bytes)": {
        "details": "Emitted when `amount` tokens are created by `operator` and assigned to `to`. Note that some additional user `data` and `operatorData` can be logged in the event."
      },
      "RevokedOperator(address,address)": {
        "details": "Emitted when `operator` is revoked its operator status for `tokenHolder`."
      },
      "Transfer(address,address,uint256)": {
        "details": "Emitted when `value` tokens are moved from one account (`from`) to another (`to`). Note that `value` may be zero."
      }
    },
    "kind": "dev",
    "methods": {
      "allowance(address,address)": {
        "returns": {
          "_0": "uint256 the remaining number of tokens that `spender` will be allowed to spend on behalf of `owner` through {transferFrom}. This is zero by default. This value changes when {approve} or {transferFrom} are called. See 'ERC20.allowance'."
        }
      },
      "approve(address,uint256)": {
        "details": "Sets a `value` amount of tokens as the allowance of `spender` over the caller's tokens. Returns a boolean value indicating whether the operation succeeded. IMPORTANT: Beware that changing an allowance with this method brings the risk that someone may use both the old and the new allowance by unfortunate transaction ordering. One possible solution to mitigate this race condition is to first reduce the spender's allowance to 0 and set the desired value afterwards: https://github.com/ethereum/EIPs/issues/20#issuecomment-263524729 Emits an {Approval} event."
      },
      "authorizeOperator(address)": {
        "details": "Make an account an operator of the caller. See {isOperatorFor}. Emits an {AuthorizedOperator} event. Requirements - `operator` cannot be calling address."
      },
      "balanceOf(address)": {
        "details": "Returns the amount of tokens owned by an account (`owner`)."
      },
      "burn(uint256,bytes)": {
        "details": "Destroys `amount` tokens from the caller's account, reducing the total supply. If a send hook is registered for the caller, the corresponding function will be called with `data` and empty `operatorData`. See {IERC777Sender}. Emits a {Burned} event. Requirements - the caller must have at least `amount` tokens."
      },
      "decimals()": {
        "details": "The internal denomination is similar to a wei and the display denomination is similar to an ether (1 ETH = 1e18 WEI) See `ERC20Detailed.decimals`. Always returns 18, as per the [ERC777 EIP](https://eips.ethereum.org/EIPS/eip-777#backward-compatibility)."
      },
      "defaultOperators()": {
        "details": "Returns the list of default operators. These accounts are operators for all token holders, even if {authorizeOperator} was never called on them. This list is immutable, but individual holders may revoke these via {revokeOperator}, in which case {isOperatorFor} will return false."
      },
      "granularity()": {
        "details": "Returns the smallest part of the token that is not divisible. This means all token operations (creation, movement and destruction) must have amounts that are a multiple of this number. For most token contracts, this value will equal 1. See 'ERC777.granularity'"
      },
      "isOperatorFor(address,address)": {
        "details": "Returns true if an account is an operator of `tokenHolder`. Operators can send and burn tokens on behalf of their owners. All accounts are their own operator. See {operatorSend} and {operatorBurn}."
      },
      "name()": {
        "details": "Returns the name of the token. See 'ERC777.name'."
      },
      "operatorBurn(address,uint256,bytes,bytes)": {
        "details": "Destroys `amount` tokens from `account`, reducing the total supply. The caller must be an operator of `account`. If a send hook is registered for `account`, the corresponding function will be called with `data` and `operatorData`. See {IERC777Sender}. Emits a {Burned} event. Requirements - `account` cannot be the zero address. - `account` must have at least `amount` tokens. - the caller must be an operator for `account`."
      },
      "operatorMint(address,uint256,bytes,bytes)": {
        "details": "The rest is similar to operator burn, see `IERC777.operatorBurn`. Emits `Minted` and `Transfer` events."
      },
      "operatorSend(address,address,uint256,bytes,bytes)": {
        "details": "Moves `amount` tokens from `sender` to `recipient`. The caller must be an operator of `sender`. If send or receive hooks are registered for `sender` and `recipient`, the corresponding functions will be called with `data` and `operatorData`. See {IERC777Sender} and {IERC777Recipient}. Emits a {Sent} event. Requirements - `sender` cannot be the zero address. - `sender` must have at least `amount` tokens. - the caller must be an operator for `sender`. - `recipient` cannot be the zero address. - if `recipient` is a contract, it must implement the {IERC777Recipient} interface."
      },
      "revokeOperator(address)": {
        "details": "Revoke an account's operator status for the caller. See {isOperatorFor} and {defaultOperators}. Emits a {RevokedOperator} event. Requirements - `operator` cannot be calling address."
      },
      "send(address,uint256,bytes)": {
        "details": "Moves `amount` tokens from the caller's account to `recipient`. If send or receive hooks are registered for the caller and `recipient`, the corresponding functions will be called with `data` and empty `operatorData`. See {IERC777Sender} and {IERC777Recipient}. Emits a {Sent} event. Requirements - the caller must have at least `amount` tokens. - `recipient` cannot be the zero address. - if `recipient` is a contract, it must implement the {IERC777Recipient} interface."
      },
      "symbol()": {
        "details": "Returns the symbol of the token, usually a shorter version of the name. See 'ERC777.symbol'"
      },
      "totalSupply()": {
        "details": "Returns the amount of tokens in existence. See 'ERC777.totalSupply'"
      }
    },
    "version": 1
  },
  "userdoc": {
    "kind": "user",
    "methods": {
      "allowance(address,address)": {
        "notice": "Operator and allowance concepts are orthogonal: operators may not have allowance, and accounts with allowance may not be operators themselves."
      },
      "operatorMint(address,uint256,bytes,bytes)": {
        "notice": "Unlike burn, holder cannot mint token themselves"
      }
    },
    "version": 1
  },
  "storageLayout": {
    "storage": [
      {
        "astId": 2527,
        "contract": "contracts/RewardToken.sol:RewardToken",
        "label": "_erc1820",
        "offset": 0,
        "slot": "0",
        "type": "t_contract(IERC1820Registry)237"
      },
      {
        "astId": 2529,
        "contract": "contracts/RewardToken.sol:RewardToken",
        "label": "_name",
        "offset": 0,
        "slot": "1",
        "type": "t_string_storage"
      },
      {
        "astId": 2531,
        "contract": "contracts/RewardToken.sol:RewardToken",
        "label": "_symbol",
        "offset": 0,
        "slot": "2",
        "type": "t_string_storage"
      },
      {
        "astId": 2533,
        "contract": "contracts/RewardToken.sol:RewardToken",
        "label": "_totalSupply",
        "offset": 0,
        "slot": "3",
        "type": "t_uint256"
      },
      {
        "astId": 2537,
        "contract": "contracts/RewardToken.sol:RewardToken",
        "label": "_balances",
        "offset": 0,
        "slot": "4",
        "type": "t_mapping(t_address,t_uint256)"
      },
      {
        "astId": 2547,
        "contract": "contracts/RewardToken.sol:RewardToken",
        "label": "_defaultOperatorsArray",
        "offset": 0,
        "slot": "5",
        "type": "t_array(t_address)dyn_storage"
      },
      {
        "astId": 2551,
        "contract": "contracts/RewardToken.sol:RewardToken",
        "label": "_defaultOperators",
        "offset": 0,
        "slot": "6",
        "type": "t_mapping(t_address,t_bool)"
      },
      {
        "astId": 2557,
        "contract": "contracts/RewardToken.sol:RewardToken",
        "label": "_operators",
        "offset": 0,
        "slot": "7",
        "type": "t_mapping(t_address,t_mapping(t_address,t_bool))"
      },
      {
        "astId": 2563,
        "contract": "contracts/RewardToken.sol:RewardToken",
        "label": "_revokedDefaultOperators",
        "offset": 0,
        "slot": "8",
        "type": "t_mapping(t_address,t_mapping(t_address,t_bool))"
      },
      {
        "astId": 2569,
        "contract": "contracts/RewardToken.sol:RewardToken",
        "label": "_allowances",
        "offset": 0,
        "slot": "9",
        "type": "t_mapping(t_address,t_mapping(t_address,t_uint256))"
      }
    ],
    "types": {
      "t_address": {
        "encoding": "inplace",
        "label": "address",
        "numberOfBytes": "20"
      },
      "t_array(t_address)dyn_storage": {
        "base": "t_address",
        "encoding": "dynamic_array",
        "label": "address[]",
        "numberOfBytes": "32"
      },
      "t_bool": {
        "encoding": "inplace",
        "label": "bool",
        "numberOfBytes": "1"
      },
      "t_contract(IERC1820Registry)237": {
        "encoding": "inplace",
        "label": "contract IERC1820Registry",
        "numberOfBytes": "20"
      },
      "t_mapping(t_address,t_bool)": {
        "encoding": "mapping",
        "key": "t_address",
        "label": "mapping(address => bool)",
        "numberOfBytes": "32",
        "value": "t_bool"
      },
      "t_mapping(t_address,t_mapping(t_address,t_bool))": {
        "encoding": "mapping",
        "key": "t_address",
        "label": "mapping(address => mapping(address => bool))",
        "numberOfBytes": "32",
        "value": "t_mapping(t_address,t_bool)"
      },
      "t_mapping(t_address,t_mapping(t_address,t_uint256))": {
        "encoding": "mapping",
        "key": "t_address",
        "label": "mapping(address => mapping(address => uint256))",
        "numberOfBytes": "32",
        "value": "t_mapping(t_address,t_uint256)"
      },
      "t_mapping(t_address,t_uint256)": {
        "encoding": "mapping",
        "key": "t_address",
        "label": "mapping(address => uint256)",
        "numberOfBytes": "32",
        "value": "t_uint256"
      },
      "t_string_storage": {
        "encoding": "bytes",
        "label": "string",
        "numberOfBytes": "32"
      },
      "t_uint256": {
        "encoding": "inplace",
        "label": "uint256",
        "numberOfBytes": "32"
      }
    }
  }
}