{
  "address": "0x5661499B1bC966f31f6C4496aEE80CdD5007b6F8",
  "abi": [
    {
      "inputs": [
        {
          "internalType": "address",
          "name": "_claimRegistry",
          "type": "address"
        }
      ],
      "stateMutability": "nonpayable",
      "type": "constructor"
    },
    {
      "inputs": [
        {
          "internalType": "address",
          "name": "owner",
          "type": "address"
        }
      ],
      "name": "OwnableInvalidOwner",
      "type": "error"
    },
    {
      "inputs": [
        {
          "internalType": "address",
          "name": "account",
          "type": "address"
        }
      ],
      "name": "OwnableUnauthorizedAccount",
      "type": "error"
    },
    {
      "anonymous": false,
      "inputs": [
        {
          "indexed": true,
          "internalType": "address",
          "name": "issuer",
          "type": "address"
        },
        {
          "indexed": true,
          "internalType": "address",
          "name": "subject",
          "type": "address"
        },
        {
          "indexed": true,
          "internalType": "bytes32",
          "name": "key",
          "type": "bytes32"
        },
        {
          "indexed": false,
          "internalType": "bytes32",
          "name": "value",
          "type": "bytes32"
        },
        {
          "indexed": false,
          "internalType": "uint256",
          "name": "updatedAt",
          "type": "uint256"
        }
      ],
      "name": "ClaimAdded",
      "type": "event"
    },
    {
      "anonymous": false,
      "inputs": [
        {
          "indexed": true,
          "internalType": "address",
          "name": "issuer",
          "type": "address"
        },
        {
          "indexed": true,
          "internalType": "address",
          "name": "subject",
          "type": "address"
        },
        {
          "indexed": true,
          "internalType": "bytes32",
          "name": "key",
          "type": "bytes32"
        },
        {
          "indexed": false,
          "internalType": "uint256",
          "name": "removedAt",
          "type": "uint256"
        }
      ],
      "name": "ClaimRemoved",
      "type": "event"
    },
    {
      "anonymous": false,
      "inputs": [
        {
          "indexed": true,
          "internalType": "address",
          "name": "issuer",
          "type": "address"
        },
        {
          "indexed": true,
          "internalType": "address",
          "name": "subject",
          "type": "address"
        },
        {
          "indexed": false,
          "internalType": "uint256",
          "name": "updatedAt",
          "type": "uint256"
        }
      ],
      "name": "MembershipAdded",
      "type": "event"
    },
    {
      "anonymous": false,
      "inputs": [
        {
          "indexed": true,
          "internalType": "address",
          "name": "issuer",
          "type": "address"
        },
        {
          "indexed": true,
          "internalType": "address",
          "name": "subject",
          "type": "address"
        },
        {
          "indexed": false,
          "internalType": "uint256",
          "name": "removedAt",
          "type": "uint256"
        }
      ],
      "name": "MembershipRevoked",
      "type": "event"
    },
    {
      "anonymous": false,
      "inputs": [
        {
          "indexed": true,
          "internalType": "address",
          "name": "previousOwner",
          "type": "address"
        },
        {
          "indexed": true,
          "internalType": "address",
          "name": "newOwner",
          "type": "address"
        }
      ],
      "name": "OwnershipTransferred",
      "type": "event"
    },
    {
      "inputs": [],
      "name": "MEMBERSHIP_CLAIM_KEY",
      "outputs": [
        {
          "internalType": "bytes32",
          "name": "",
          "type": "bytes32"
        }
      ],
      "stateMutability": "view",
      "type": "function"
    },
    {
      "inputs": [],
      "name": "MEMBERSHIP_CLAIM_VALUE",
      "outputs": [
        {
          "internalType": "bytes32",
          "name": "",
          "type": "bytes32"
        }
      ],
      "stateMutability": "view",
      "type": "function"
    },
    {
      "inputs": [],
      "name": "claimRegistry",
      "outputs": [
        {
          "internalType": "contract EthereumClaimsRegistry",
          "name": "",
          "type": "address"
        }
      ],
      "stateMutability": "view",
      "type": "function"
    },
    {
      "inputs": [],
      "name": "owner",
      "outputs": [
        {
          "internalType": "address",
          "name": "",
          "type": "address"
        }
      ],
      "stateMutability": "view",
      "type": "function"
    },
    {
      "inputs": [
        {
          "internalType": "address",
          "name": "subject",
          "type": "address"
        },
        {
          "internalType": "bytes32",
          "name": "key",
          "type": "bytes32"
        }
      ],
      "name": "removeClaim",
      "outputs": [],
      "stateMutability": "nonpayable",
      "type": "function"
    },
    {
      "inputs": [],
      "name": "renounceOwnership",
      "outputs": [],
      "stateMutability": "nonpayable",
      "type": "function"
    },
    {
      "inputs": [
        {
          "internalType": "address",
          "name": "organization",
          "type": "address"
        }
      ],
      "name": "revokeMembershipClaim",
      "outputs": [],
      "stateMutability": "nonpayable",
      "type": "function"
    },
    {
      "inputs": [
        {
          "internalType": "address",
          "name": "subject",
          "type": "address"
        },
        {
          "internalType": "bytes32",
          "name": "key",
          "type": "bytes32"
        },
        {
          "internalType": "bytes32",
          "name": "value",
          "type": "bytes32"
        }
      ],
      "name": "setClaim",
      "outputs": [],
      "stateMutability": "nonpayable",
      "type": "function"
    },
    {
      "inputs": [
        {
          "internalType": "address",
          "name": "organization",
          "type": "address"
        }
      ],
      "name": "setMembershipClaim",
      "outputs": [],
      "stateMutability": "nonpayable",
      "type": "function"
    },
    {
      "inputs": [
        {
          "internalType": "address",
          "name": "newOwner",
          "type": "address"
        }
      ],
      "name": "transferOwnership",
      "outputs": [],
      "stateMutability": "nonpayable",
      "type": "function"
    }
  ],
  "transactionHash": "0x1e536f157b10ae91760fa3a36d929d5e14700835b8bafcb78cd0776d35e12b73",
  "args": [
    "0xF1e3a448a647dC0Ebaf370F8Ea4b1F6948Ce2F3e"
  ],
  "numDeployments": 1,
  "solcInputHash": "e3994f3cb37c659752947cba1eda4385",
  "bytecode": "0x60806040523480156200001157600080fd5b5060405162000f4e38038062000f4e833981810160405281019062000037919062000235565b30600073ffffffffffffffffffffffffffffffffffffffff168173ffffffffffffffffffffffffffffffffffffffff1603620000ad5760006040517f1e4fbdf7000000000000000000000000000000000000000000000000000000008152600401620000a4919062000278565b60405180910390fd5b620000be816200010760201b60201c565b5080600160006101000a81548173ffffffffffffffffffffffffffffffffffffffff021916908373ffffffffffffffffffffffffffffffffffffffff1602179055505062000295565b60008060009054906101000a900473ffffffffffffffffffffffffffffffffffffffff169050816000806101000a81548173ffffffffffffffffffffffffffffffffffffffff021916908373ffffffffffffffffffffffffffffffffffffffff1602179055508173ffffffffffffffffffffffffffffffffffffffff168173ffffffffffffffffffffffffffffffffffffffff167f8be0079c531659141344cd1fd0a4f28419497f9722a3daafe3b4186f6b6457e060405160405180910390a35050565b600080fd5b600073ffffffffffffffffffffffffffffffffffffffff82169050919050565b6000620001fd82620001d0565b9050919050565b6200020f81620001f0565b81146200021b57600080fd5b50565b6000815190506200022f8162000204565b92915050565b6000602082840312156200024e576200024d620001cb565b5b60006200025e848285016200021e565b91505092915050565b6200027281620001f0565b82525050565b60006020820190506200028f600083018462000267565b92915050565b610ca980620002a56000396000f3fe608060405234801561001057600080fd5b506004361061009e5760003560e01c8063a1c8ca7e11610066578063a1c8ca7e14610121578063a878e1561461013d578063a95bcc871461015b578063b3d6320c14610177578063f2fde38b146101955761009e565b806324d7cdb2146100a35780636a60b64d146100c1578063715018a6146100dd5780638da5cb5b146100e75780639918925d14610105575b600080fd5b6100ab6101b1565b6040516100b891906108cd565b60405180910390f35b6100db60048036038101906100d6919061094b565b6101d9565b005b6100e5610322565b005b6100ef610336565b6040516100fc9190610987565b60405180910390f35b61011f600480360381019061011a91906109ce565b61035f565b005b61013b60048036038101906101369190610a21565b610465565b005b610145610568565b6040516101529190610ac0565b60405180910390f35b6101756004803603810190610170919061094b565b61058e565b005b61017f6106b3565b60405161018c91906108cd565b60405180910390f35b6101af60048036038101906101aa919061094b565b6106db565b005b6040516020016101c090610b32565b6040516020818303038152906040528051906020012081565b6101e1610761565b600160009054906101000a900473ffffffffffffffffffffffffffffffffffffffff1673ffffffffffffffffffffffffffffffffffffffff16639918925d8260405160200161022f90610b32565b6040516020818303038152906040528051906020012060405160200161025490610b93565b604051602081830303815290604052805190602001206040518463ffffffff1660e01b815260040161028893929190610ba8565b600060405180830381600087803b1580156102a257600080fd5b505af11580156102b6573d6000803e3d6000fd5b505050508073ffffffffffffffffffffffffffffffffffffffff163373ffffffffffffffffffffffffffffffffffffffff167f18f6aeffabbdcc8bf31cda52d172549bd9cfd8358f4beb7a95698088cb03b6a0426040516103179190610bf8565b60405180910390a350565b61032a610761565b61033460006107e8565b565b60008060009054906101000a900473ffffffffffffffffffffffffffffffffffffffff16905090565b610367610761565b600160009054906101000a900473ffffffffffffffffffffffffffffffffffffffff1673ffffffffffffffffffffffffffffffffffffffff16639918925d8484846040518463ffffffff1660e01b81526004016103c693929190610ba8565b600060405180830381600087803b1580156103e057600080fd5b505af11580156103f4573d6000803e3d6000fd5b50505050818373ffffffffffffffffffffffffffffffffffffffff163373ffffffffffffffffffffffffffffffffffffffff167f853a5f612ccc135937c620de7cb5adb1787beb9624323c28c09f981c21d89bf38442604051610458929190610c13565b60405180910390a4505050565b61046d610761565b600160009054906101000a900473ffffffffffffffffffffffffffffffffffffffff1673ffffffffffffffffffffffffffffffffffffffff1663c7508ec73384846040518463ffffffff1660e01b81526004016104cc93929190610c3c565b600060405180830381600087803b1580156104e657600080fd5b505af11580156104fa573d6000803e3d6000fd5b50505050808273ffffffffffffffffffffffffffffffffffffffff163373ffffffffffffffffffffffffffffffffffffffff167f7bc046ef9f2fccd4c99778d7e0fbed67ddb16e63e1a266894769de9516b8039a4260405161055c9190610bf8565b60405180910390a45050565b600160009054906101000a900473ffffffffffffffffffffffffffffffffffffffff1681565b610596610761565b600160009054906101000a900473ffffffffffffffffffffffffffffffffffffffff1673ffffffffffffffffffffffffffffffffffffffff1663c7508ec730836040516020016105e590610b32565b604051602081830303815290604052805190602001206040518463ffffffff1660e01b815260040161061993929190610c3c565b600060405180830381600087803b15801561063357600080fd5b505af1158015610647573d6000803e3d6000fd5b505050508073ffffffffffffffffffffffffffffffffffffffff163373ffffffffffffffffffffffffffffffffffffffff167f43c2a8d3790d980a7f79d8a9bd84cc66132c033d495fc90955366dc62f362d84426040516106a89190610bf8565b60405180910390a350565b6040516020016106c290610b93565b6040516020818303038152906040528051906020012081565b6106e3610761565b600073ffffffffffffffffffffffffffffffffffffffff168173ffffffffffffffffffffffffffffffffffffffff16036107555760006040517f1e4fbdf700000000000000000000000000000000000000000000000000000000815260040161074c9190610987565b60405180910390fd5b61075e816107e8565b50565b6107696108ac565b73ffffffffffffffffffffffffffffffffffffffff16610787610336565b73ffffffffffffffffffffffffffffffffffffffff16146107e6576107aa6108ac565b6040517f118cdaa70000000000000000000000000000000000000000000000000000000081526004016107dd9190610987565b60405180910390fd5b565b60008060009054906101000a900473ffffffffffffffffffffffffffffffffffffffff169050816000806101000a81548173ffffffffffffffffffffffffffffffffffffffff021916908373ffffffffffffffffffffffffffffffffffffffff1602179055508173ffffffffffffffffffffffffffffffffffffffff168173ffffffffffffffffffffffffffffffffffffffff167f8be0079c531659141344cd1fd0a4f28419497f9722a3daafe3b4186f6b6457e060405160405180910390a35050565b600033905090565b6000819050919050565b6108c7816108b4565b82525050565b60006020820190506108e260008301846108be565b92915050565b600080fd5b600073ffffffffffffffffffffffffffffffffffffffff82169050919050565b6000610918826108ed565b9050919050565b6109288161090d565b811461093357600080fd5b50565b6000813590506109458161091f565b92915050565b600060208284031215610961576109606108e8565b5b600061096f84828501610936565b91505092915050565b6109818161090d565b82525050565b600060208201905061099c6000830184610978565b92915050565b6109ab816108b4565b81146109b657600080fd5b50565b6000813590506109c8816109a2565b92915050565b6000806000606084860312156109e7576109e66108e8565b5b60006109f586828701610936565b9350506020610a06868287016109b9565b9250506040610a17868287016109b9565b9150509250925092565b60008060408385031215610a3857610a376108e8565b5b6000610a4685828601610936565b9250506020610a57858286016109b9565b9150509250929050565b6000819050919050565b6000610a86610a81610a7c846108ed565b610a61565b6108ed565b9050919050565b6000610a9882610a6b565b9050919050565b6000610aaa82610a8d565b9050919050565b610aba81610a9f565b82525050565b6000602082019050610ad56000830184610ab1565b92915050565b600081905092915050565b7f6d656d6265727368697000000000000000000000000000000000000000000000600082015250565b6000610b1c600a83610adb565b9150610b2782610ae6565b600a82019050919050565b6000610b3d82610b0f565b9150819050919050565b7f7472756500000000000000000000000000000000000000000000000000000000600082015250565b6000610b7d600483610adb565b9150610b8882610b47565b600482019050919050565b6000610b9e82610b70565b9150819050919050565b6000606082019050610bbd6000830186610978565b610bca60208301856108be565b610bd760408301846108be565b949350505050565b6000819050919050565b610bf281610bdf565b82525050565b6000602082019050610c0d6000830184610be9565b92915050565b6000604082019050610c2860008301856108be565b610c356020830184610be9565b9392505050565b6000606082019050610c516000830186610978565b610c5e6020830185610978565b610c6b60408301846108be565b94935050505056fea26469706673582212209465d5a05d167e59844197cafac91c262b72510254a3bc865536928790fa1d5264736f6c63430008140033",
  "devdoc": {
    "errors": {
      "OwnableInvalidOwner(address)": [
        {
          "details": "The owner is not a valid owner account. (eg. `address(0)`)"
        }
      ],
      "OwnableUnauthorizedAccount(address)": [
        {
          "details": "The caller account is not authorized to perform an operation."
        }
      ]
    },
    "kind": "dev",
    "methods": {
      "owner()": {
        "details": "Returns the address of the current owner."
      },
      "renounceOwnership()": {
        "details": "Leaves the contract without owner. It will not be possible to call `onlyOwner` functions. Can only be called by the current owner. NOTE: Renouncing ownership will leave the contract without an owner, thereby disabling any functionality that is only available to the owner."
      },
      "transferOwnership(address)": {
        "details": "Transfers ownership of the contract to a new account (`newOwner`). Can only be called by the current owner."
      }
    },
    "version": 1
  },
  "userdoc": {
    "kind": "user",
    "methods": {},
    "version": 1
  },
  "storageLayout": {
    "storage": [
      {
        "astId": 8,
        "contract": "contracts/TokenClaimsIssuer.sol:TokenClaimsIssuer",
        "label": "_owner",
        "offset": 0,
        "slot": "0",
        "type": "t_address"
      },
      {
        "astId": 3977,
        "contract": "contracts/TokenClaimsIssuer.sol:TokenClaimsIssuer",
        "label": "claimRegistry",
        "offset": 0,
        "slot": "1",
        "type": "t_contract(EthereumClaimsRegistry)1737"
      }
    ],
    "types": {
      "t_address": {
        "encoding": "inplace",
        "label": "address",
        "numberOfBytes": "20"
      },
      "t_contract(EthereumClaimsRegistry)1737": {
        "encoding": "inplace",
        "label": "contract EthereumClaimsRegistry",
        "numberOfBytes": "20"
      }
    }
  }
}