{
  "address": "0x59003fddE4301D6805d22572956cCd13ebE3c65C",
  "abi": [
    {
      "inputs": [
        {
          "internalType": "address",
          "name": "_didRegistry",
          "type": "address"
        },
        {
          "internalType": "address",
          "name": "_claimsRegistry",
          "type": "address"
        },
        {
          "internalType": "address",
          "name": "_claimsIssuer",
          "type": "address"
        }
      ],
      "stateMutability": "nonpayable",
      "type": "constructor"
    },
    {
      "inputs": [
        {
          "internalType": "address",
          "name": "owner",
          "type": "address"
        }
      ],
      "name": "OwnableInvalidOwner",
      "type": "error"
    },
    {
      "inputs": [
        {
          "internalType": "address",
          "name": "account",
          "type": "address"
        }
      ],
      "name": "OwnableUnauthorizedAccount",
      "type": "error"
    },
    {
      "anonymous": false,
      "inputs": [
        {
          "indexed": false,
          "internalType": "address",
          "name": "organization",
          "type": "address"
        },
        {
          "indexed": false,
          "internalType": "address",
          "name": "account",
          "type": "address"
        },
        {
          "indexed": false,
          "internalType": "uint256",
          "name": "amount",
          "type": "uint256"
        }
      ],
      "name": "BatchMintError",
      "type": "event"
    },
    {
      "anonymous": false,
      "inputs": [
        {
          "indexed": false,
          "internalType": "address",
          "name": "organization",
          "type": "address"
        },
        {
          "indexed": false,
          "internalType": "address",
          "name": "account",
          "type": "address"
        }
      ],
      "name": "EmployeeNotRegistered",
      "type": "event"
    },
    {
      "anonymous": false,
      "inputs": [
        {
          "indexed": false,
          "internalType": "address",
          "name": "organization",
          "type": "address"
        }
      ],
      "name": "OrganizationNotMember",
      "type": "event"
    },
    {
      "anonymous": false,
      "inputs": [
        {
          "indexed": true,
          "internalType": "address",
          "name": "previousOwner",
          "type": "address"
        },
        {
          "indexed": true,
          "internalType": "address",
          "name": "newOwner",
          "type": "address"
        }
      ],
      "name": "OwnershipTransferred",
      "type": "event"
    },
    {
      "anonymous": false,
      "inputs": [
        {
          "indexed": true,
          "internalType": "address",
          "name": "account",
          "type": "address"
        },
        {
          "indexed": false,
          "internalType": "uint256",
          "name": "amount",
          "type": "uint256"
        },
        {
          "indexed": false,
          "internalType": "bytes",
          "name": "operatorData",
          "type": "bytes"
        }
      ],
      "name": "PenaltiesBurned",
      "type": "event"
    },
    {
      "anonymous": false,
      "inputs": [
        {
          "indexed": true,
          "internalType": "address",
          "name": "account",
          "type": "address"
        },
        {
          "indexed": false,
          "internalType": "uint256",
          "name": "amount",
          "type": "uint256"
        },
        {
          "indexed": false,
          "internalType": "bytes",
          "name": "operatorData",
          "type": "bytes"
        }
      ],
      "name": "PenaltiesMinted",
      "type": "event"
    },
    {
      "anonymous": false,
      "inputs": [
        {
          "indexed": true,
          "internalType": "address",
          "name": "account",
          "type": "address"
        },
        {
          "indexed": false,
          "internalType": "uint256",
          "name": "amount",
          "type": "uint256"
        },
        {
          "indexed": false,
          "internalType": "bytes",
          "name": "operatorData",
          "type": "bytes"
        }
      ],
      "name": "ReputationBurned",
      "type": "event"
    },
    {
      "anonymous": false,
      "inputs": [
        {
          "indexed": true,
          "internalType": "address",
          "name": "account",
          "type": "address"
        },
        {
          "indexed": false,
          "internalType": "uint256",
          "name": "amount",
          "type": "uint256"
        },
        {
          "indexed": false,
          "internalType": "bytes",
          "name": "operatorData",
          "type": "bytes"
        }
      ],
      "name": "ReputationMinted",
      "type": "event"
    },
    {
      "anonymous": false,
      "inputs": [
        {
          "indexed": true,
          "internalType": "address",
          "name": "account",
          "type": "address"
        },
        {
          "indexed": false,
          "internalType": "uint256",
          "name": "amount",
          "type": "uint256"
        },
        {
          "indexed": false,
          "internalType": "bytes",
          "name": "operatorData",
          "type": "bytes"
        }
      ],
      "name": "RewardsBurned",
      "type": "event"
    },
    {
      "anonymous": false,
      "inputs": [
        {
          "indexed": true,
          "internalType": "address",
          "name": "account",
          "type": "address"
        },
        {
          "indexed": false,
          "internalType": "uint256",
          "name": "amount",
          "type": "uint256"
        },
        {
          "indexed": false,
          "internalType": "bytes",
          "name": "operatorData",
          "type": "bytes"
        }
      ],
      "name": "RewardsMinted",
      "type": "event"
    },
    {
      "inputs": [
        {
          "internalType": "address",
          "name": "account",
          "type": "address"
        }
      ],
      "name": "balance",
      "outputs": [
        {
          "internalType": "uint256",
          "name": "",
          "type": "uint256"
        },
        {
          "internalType": "uint256",
          "name": "",
          "type": "uint256"
        },
        {
          "internalType": "uint256",
          "name": "",
          "type": "uint256"
        }
      ],
      "stateMutability": "view",
      "type": "function"
    },
    {
      "inputs": [
        {
          "internalType": "address[]",
          "name": "_organization",
          "type": "address[]"
        }
      ],
      "name": "batchBurnTokens",
      "outputs": [],
      "stateMutability": "nonpayable",
      "type": "function"
    },
    {
      "inputs": [
        {
          "internalType": "address[]",
          "name": "_organizations",
          "type": "address[]"
        },
        {
          "internalType": "address[]",
          "name": "_accounts",
          "type": "address[]"
        },
        {
          "internalType": "uint256[]",
          "name": "_amounts",
          "type": "uint256[]"
        }
      ],
      "name": "batchMintPenalties",
      "outputs": [],
      "stateMutability": "nonpayable",
      "type": "function"
    },
    {
      "inputs": [
        {
          "internalType": "address[]",
          "name": "_organizations",
          "type": "address[]"
        },
        {
          "internalType": "address[]",
          "name": "_accounts",
          "type": "address[]"
        },
        {
          "internalType": "uint256[]",
          "name": "_amounts",
          "type": "uint256[]"
        }
      ],
      "name": "batchMintReward",
      "outputs": [],
      "stateMutability": "nonpayable",
      "type": "function"
    },
    {
      "inputs": [
        {
          "internalType": "address",
          "name": "organization",
          "type": "address"
        }
      ],
      "name": "burnAll",
      "outputs": [],
      "stateMutability": "nonpayable",
      "type": "function"
    },
    {
      "inputs": [
        {
          "internalType": "address",
          "name": "account",
          "type": "address"
        },
        {
          "internalType": "uint256",
          "name": "amount",
          "type": "uint256"
        },
        {
          "internalType": "bytes",
          "name": "operatorData",
          "type": "bytes"
        }
      ],
      "name": "burnPenalties",
      "outputs": [],
      "stateMutability": "nonpayable",
      "type": "function"
    },
    {
      "inputs": [
        {
          "internalType": "address",
          "name": "organization",
          "type": "address"
        },
        {
          "internalType": "uint256",
          "name": "amount",
          "type": "uint256"
        },
        {
          "internalType": "bytes",
          "name": "operatorData",
          "type": "bytes"
        }
      ],
      "name": "burnRewards",
      "outputs": [],
      "stateMutability": "nonpayable",
      "type": "function"
    },
    {
      "inputs": [],
      "name": "claimsIssuer",
      "outputs": [
        {
          "internalType": "contract TokenClaimsIssuer",
          "name": "",
          "type": "address"
        }
      ],
      "stateMutability": "view",
      "type": "function"
    },
    {
      "inputs": [],
      "name": "claimsRegistry",
      "outputs": [
        {
          "internalType": "contract EthereumClaimsRegistry",
          "name": "",
          "type": "address"
        }
      ],
      "stateMutability": "view",
      "type": "function"
    },
    {
      "inputs": [],
      "name": "didRegistry",
      "outputs": [
        {
          "internalType": "contract EthereumDIDRegistry",
          "name": "",
          "type": "address"
        }
      ],
      "stateMutability": "view",
      "type": "function"
    },
    {
      "inputs": [],
      "name": "owner",
      "outputs": [
        {
          "internalType": "address",
          "name": "",
          "type": "address"
        }
      ],
      "stateMutability": "view",
      "type": "function"
    },
    {
      "inputs": [],
      "name": "penaltyToken",
      "outputs": [
        {
          "internalType": "contract PenaltyToken",
          "name": "",
          "type": "address"
        }
      ],
      "stateMutability": "view",
      "type": "function"
    },
    {
      "inputs": [
        {
          "internalType": "address",
          "name": "_rewardToken",
          "type": "address"
        },
        {
          "internalType": "address",
          "name": "_penaltyToken",
          "type": "address"
        },
        {
          "internalType": "address",
          "name": "_reputationToken",
          "type": "address"
        }
      ],
      "name": "registerTokens",
      "outputs": [],
      "stateMutability": "nonpayable",
      "type": "function"
    },
    {
      "inputs": [],
      "name": "renounceOwnership",
      "outputs": [],
      "stateMutability": "nonpayable",
      "type": "function"
    },
    {
      "inputs": [],
      "name": "reputationToken",
      "outputs": [
        {
          "internalType": "contract ReputationToken",
          "name": "",
          "type": "address"
        }
      ],
      "stateMutability": "view",
      "type": "function"
    },
    {
      "inputs": [],
      "name": "rewardToken",
      "outputs": [
        {
          "internalType": "contract RewardToken",
          "name": "",
          "type": "address"
        }
      ],
      "stateMutability": "view",
      "type": "function"
    },
    {
      "inputs": [
        {
          "internalType": "address",
          "name": "newOwner",
          "type": "address"
        }
      ],
      "name": "transferOwnership",
      "outputs": [],
      "stateMutability": "nonpayable",
      "type": "function"
    }
  ],
  "transactionHash": "0x2c8796811e59654f99ffb96f9c6c00bc5dc0c864a6691d15576800bcd367dc82",
  "args": [
    "0xd91B363364C126a0aa32D646D324AE1aE258b9E4",
    "0xF1e3a448a647dC0Ebaf370F8Ea4b1F6948Ce2F3e",
    "0x5661499B1bC966f31f6C4496aEE80CdD5007b6F8"
  ],
  "numDeployments": 1,
  "solcInputHash": "ec24bb8a8219366eabf559f9f7aeb57c",
  "bytecode": "0x60e06040523480156200001157600080fd5b506040516200295438038062002954833981810160405281019062000037919062000292565b33600073ffffffffffffffffffffffffffffffffffffffff168173ffffffffffffffffffffffffffffffffffffffff1603620000ad5760006040517f1e4fbdf7000000000000000000000000000000000000000000000000000000008152600401620000a49190620002ff565b60405180910390fd5b620000be816200016460201b60201c565b508273ffffffffffffffffffffffffffffffffffffffff1660a08173ffffffffffffffffffffffffffffffffffffffff16815250508173ffffffffffffffffffffffffffffffffffffffff1660c08173ffffffffffffffffffffffffffffffffffffffff16815250508073ffffffffffffffffffffffffffffffffffffffff1660808173ffffffffffffffffffffffffffffffffffffffff16815250505050506200031c565b60008060009054906101000a900473ffffffffffffffffffffffffffffffffffffffff169050816000806101000a81548173ffffffffffffffffffffffffffffffffffffffff021916908373ffffffffffffffffffffffffffffffffffffffff1602179055508173ffffffffffffffffffffffffffffffffffffffff168173ffffffffffffffffffffffffffffffffffffffff167f8be0079c531659141344cd1fd0a4f28419497f9722a3daafe3b4186f6b6457e060405160405180910390a35050565b600080fd5b600073ffffffffffffffffffffffffffffffffffffffff82169050919050565b60006200025a826200022d565b9050919050565b6200026c816200024d565b81146200027857600080fd5b50565b6000815190506200028c8162000261565b92915050565b600080600060608486031215620002ae57620002ad62000228565b5b6000620002be868287016200027b565b9350506020620002d1868287016200027b565b9250506040620002e4868287016200027b565b9150509250925092565b620002f9816200024d565b82525050565b6000602082019050620003166000830184620002ee565b92915050565b60805160a05160c0516125f36200036160003960008181610cdc015261108b01526000818161084701526111a0015260008181610ace01526110c701526125f36000f3fe608060405234801561001057600080fd5b506004361061010b5760003560e01c8063715018a6116100a2578063b1a8dbc411610071578063b1a8dbc414610258578063e3d670d714610276578063f2fde38b146102a8578063f7c618c1146102c4578063f7f32c12146102e25761010b565b8063715018a6146101f65780637c6b74d2146102005780637e9d2ac11461021e5780638da5cb5b1461023a5761010b565b80633abecfcf116100de5780633abecfcf146101845780633ed6e9cd146101a0578063577f9fb1146101bc5780636ba92503146101da5761010b565b80630a6bad3d14610110578063246a386e1461012c578063275bbe9b146101485780632c2d770914610166575b600080fd5b61012a60048036038101906101259190611bde565b6102fe565b005b61014660048036038101906101419190611d03565b6103ec565b005b61015061063b565b60405161015d9190611e16565b60405180910390f35b61016e610661565b60405161017b9190611e52565b60405180910390f35b61019e60048036038101906101999190611bde565b610687565b005b6101ba60048036038101906101b59190611e6d565b610775565b005b6101c4610845565b6040516101d19190611ee1565b60405180910390f35b6101f460048036038101906101ef9190611d03565b610869565b005b6101fe610ab8565b005b610208610acc565b6040516102159190611f1d565b60405180910390f35b61023860048036038101906102339190611f38565b610af0565b005b610242610cb1565b60405161024f9190611f74565b60405180910390f35b610260610cda565b60405161026d9190611fb0565b60405180910390f35b610290600480360381019061028b9190611f38565b610cfe565b60405161029f93929190611fda565b60405180910390f35b6102c260048036038101906102bd9190611f38565b610ee4565b005b6102cc610f6a565b6040516102d99190612032565b60405180910390f35b6102fc60048036038101906102f7919061204d565b610f90565b005b610306610fff565b600160009054906101000a900473ffffffffffffffffffffffffffffffffffffffff1673ffffffffffffffffffffffffffffffffffffffff1663fc673c4f8484846040518463ffffffff1660e01b81526004016103659392919061213f565b600060405180830381600087803b15801561037f57600080fd5b505af1158015610393573d6000803e3d6000fd5b505050508273ffffffffffffffffffffffffffffffffffffffff167f2774d0262ba6b8c0231a7b6786fbfad994dc4d70431c0561da79766f02cd6b1383836040516103df929190612190565b60405180910390a2505050565b6103f4610fff565b6000868690509050848490508114801561041057508282905081145b61044f576040517f08c379a000000000000000000000000000000000000000000000000000000000815260040161044690612243565b60405180910390fd5b36600088889150915036600088889150915036600088889150915060005b8781101561062b57600087878381811061048a57610489612263565b5b905060200201602081019061049f9190611f38565b905060008686848181106104b6576104b5612263565b5b90506020020160208101906104cb9190611f38565b905060008585858181106104e2576104e1612263565b5b9050602002013590506104f483611086565b156105a257610503838361119c565b156105285761052383838360405180602001604052806000815250611268565b61059d565b7f591053e75a4d18b38da927b368bbfd008fcae4825890a416f9ee5b9ad96591a08383604051610559929190612292565b60405180910390a17f2375c18441c25a8df52ecf93bd2870de5a6c03cbb97e70a2a712267780af3e47838383604051610594939291906122bb565b60405180910390a15b610615565b7fbfe0604ac0318b211e41ea5d26d9f168ea3394a7ace31385cd1bbf49bb61953b836040516105d19190611f74565b60405180910390a17f2375c18441c25a8df52ecf93bd2870de5a6c03cbb97e70a2a712267780af3e4783838360405161060c939291906122bb565b60405180910390a15b505050808061062390612321565b91505061046d565b5050505050505050505050505050565b600360009054906101000a900473ffffffffffffffffffffffffffffffffffffffff1681565b600260009054906101000a900473ffffffffffffffffffffffffffffffffffffffff1681565b61068f610fff565b600260009054906101000a900473ffffffffffffffffffffffffffffffffffffffff1673ffffffffffffffffffffffffffffffffffffffff1663fc673c4f8484846040518463ffffffff1660e01b81526004016106ee9392919061213f565b600060405180830381600087803b15801561070857600080fd5b505af115801561071c573d6000803e3d6000fd5b505050508273ffffffffffffffffffffffffffffffffffffffff167f7c6a3e262af3d7a188321ff5018442c85e9e1fcb7e05fca53663dc7d95a958b78383604051610768929190612190565b60405180910390a2505050565b61077d610fff565b82600160006101000a81548173ffffffffffffffffffffffffffffffffffffffff021916908373ffffffffffffffffffffffffffffffffffffffff16021790555081600260006101000a81548173ffffffffffffffffffffffffffffffffffffffff021916908373ffffffffffffffffffffffffffffffffffffffff16021790555080600360006101000a81548173ffffffffffffffffffffffffffffffffffffffff021916908373ffffffffffffffffffffffffffffffffffffffff160217905550505050565b7f000000000000000000000000000000000000000000000000000000000000000081565b610871610fff565b6000868690509050848490508114801561088d57508282905081145b6108cc576040517f08c379a00000000000000000000000000000000000000000000000000000000081526004016108c390612243565b60405180910390fd5b36600088889150915036600088889150915036600088889150915060005b87811015610aa857600087878381811061090757610906612263565b5b905060200201602081019061091c9190611f38565b9050600086868481811061093357610932612263565b5b90506020020160208101906109489190611f38565b9050600085858581811061095f5761095e612263565b5b90506020020135905061097183611086565b15610a1f57610980838361119c565b156109a5576109a083838360405180602001604052806000815250611511565b610a1a565b7f591053e75a4d18b38da927b368bbfd008fcae4825890a416f9ee5b9ad96591a083836040516109d6929190612292565b60405180910390a17f2375c18441c25a8df52ecf93bd2870de5a6c03cbb97e70a2a712267780af3e47838383604051610a11939291906122bb565b60405180910390a15b610a92565b7fbfe0604ac0318b211e41ea5d26d9f168ea3394a7ace31385cd1bbf49bb61953b83604051610a4e9190611f74565b60405180910390a17f2375c18441c25a8df52ecf93bd2870de5a6c03cbb97e70a2a712267780af3e47838383604051610a89939291906122bb565b60405180910390a15b5050508080610aa090612321565b9150506108ea565b5050505050505050505050505050565b610ac0610fff565b610aca6000611924565b565b7f000000000000000000000000000000000000000000000000000000000000000081565b610af8610fff565b610bd381600160009054906101000a900473ffffffffffffffffffffffffffffffffffffffff1673ffffffffffffffffffffffffffffffffffffffff166370a08231846040518263ffffffff1660e01b8152600401610b579190611f74565b602060405180830381865afa158015610b74573d6000803e3d6000fd5b505050506040513d601f19601f82011682018060405250810190610b98919061237e565b6040518060400160405280601281526020017f6d656d626572736869702072656e6577616c00000000000000000000000000008152506102fe565b610cae81600260009054906101000a900473ffffffffffffffffffffffffffffffffffffffff1673ffffffffffffffffffffffffffffffffffffffff166370a08231846040518263ffffffff1660e01b8152600401610c329190611f74565b602060405180830381865afa158015610c4f573d6000803e3d6000fd5b505050506040513d601f19601f82011682018060405250810190610c73919061237e565b6040518060400160405280601281526020017f6d656d626572736869702072656e6577616c0000000000000000000000000000815250610687565b50565b60008060009054906101000a900473ffffffffffffffffffffffffffffffffffffffff16905090565b7f000000000000000000000000000000000000000000000000000000000000000081565b6000806000600160009054906101000a900473ffffffffffffffffffffffffffffffffffffffff1673ffffffffffffffffffffffffffffffffffffffff166370a08231856040518263ffffffff1660e01b8152600401610d5e9190611f74565b602060405180830381865afa158015610d7b573d6000803e3d6000fd5b505050506040513d601f19601f82011682018060405250810190610d9f919061237e565b600260009054906101000a900473ffffffffffffffffffffffffffffffffffffffff1673ffffffffffffffffffffffffffffffffffffffff166370a08231866040518263ffffffff1660e01b8152600401610dfa9190611f74565b602060405180830381865afa158015610e17573d6000803e3d6000fd5b505050506040513d601f19601f82011682018060405250810190610e3b919061237e565b600360009054906101000a900473ffffffffffffffffffffffffffffffffffffffff1673ffffffffffffffffffffffffffffffffffffffff166370a08231876040518263ffffffff1660e01b8152600401610e969190611f74565b602060405180830381865afa158015610eb3573d6000803e3d6000fd5b505050506040513d601f19601f82011682018060405250810190610ed7919061237e565b9250925092509193909250565b610eec610fff565b600073ffffffffffffffffffffffffffffffffffffffff168173ffffffffffffffffffffffffffffffffffffffff1603610f5e5760006040517f1e4fbdf7000000000000000000000000000000000000000000000000000000008152600401610f559190611f74565b60405180910390fd5b610f6781611924565b50565b600160009054906101000a900473ffffffffffffffffffffffffffffffffffffffff1681565b610f98610fff565b366000838391509150600082829050905060005b81811015610ff757610fe4848483818110610fca57610fc9612263565b5b9050602002016020810190610fdf9190611f38565b610af0565b8080610fef90612321565b915050610fac565b505050505050565b6110076119e8565b73ffffffffffffffffffffffffffffffffffffffff16611025610cb1565b73ffffffffffffffffffffffffffffffffffffffff1614611084576110486119e8565b6040517f118cdaa700000000000000000000000000000000000000000000000000000000815260040161107b9190611f74565b60405180910390fd5b565b6000807f000000000000000000000000000000000000000000000000000000000000000073ffffffffffffffffffffffffffffffffffffffff1663e1661eff7f0000000000000000000000000000000000000000000000000000000000000000856040516020016110f690612402565b604051602081830303815290604052805190602001206040518463ffffffff1660e01b815260040161112a93929190612430565b602060405180830381865afa158015611147573d6000803e3d6000fd5b505050506040513d601f19601f8201168201806040525081019061116b9190612493565b905060405160200161117c90612402565b604051602081830303815290604052805190602001208114915050919050565b60007f000000000000000000000000000000000000000000000000000000000000000073ffffffffffffffffffffffffffffffffffffffff1663622b2a3c846040516020016111ea9061250c565b60405160208183030381529060405280519060200120856040518463ffffffff1660e01b815260040161121f93929190612521565b602060405180830381865afa15801561123c573d6000803e3d6000fd5b505050506040513d601f19601f820116820180604052508101906112609190612590565b905092915050565b600360009054906101000a900473ffffffffffffffffffffffffffffffffffffffff1673ffffffffffffffffffffffffffffffffffffffff1663999de9cc8484846040518463ffffffff1660e01b81526004016112c79392919061213f565b600060405180830381600087803b1580156112e157600080fd5b505af11580156112f5573d6000803e3d6000fd5b50505050600160009054906101000a900473ffffffffffffffffffffffffffffffffffffffff1673ffffffffffffffffffffffffffffffffffffffff1663999de9cc8584846040518463ffffffff1660e01b81526004016113589392919061213f565b600060405180830381600087803b15801561137257600080fd5b505af1158015611386573d6000803e3d6000fd5b50505050600360009054906101000a900473ffffffffffffffffffffffffffffffffffffffff1673ffffffffffffffffffffffffffffffffffffffff1663999de9cc8584846040518463ffffffff1660e01b81526004016113e99392919061213f565b600060405180830381600087803b15801561140357600080fd5b505af1158015611417573d6000803e3d6000fd5b505050508373ffffffffffffffffffffffffffffffffffffffff167f0bf208b09593f1ba23dff8989cf3b82f36e0e97b7a2f8e078a452be16ebd03308383604051611463929190612190565b60405180910390a28373ffffffffffffffffffffffffffffffffffffffff167f07fbb4dc7d160f762f5111d8f033086512a0857dfb27c8525c71d04120597ce783836040516114b3929190612190565b60405180910390a28273ffffffffffffffffffffffffffffffffffffffff167f07fbb4dc7d160f762f5111d8f033086512a0857dfb27c8525c71d04120597ce78383604051611503929190612190565b60405180910390a250505050565b600260009054906101000a900473ffffffffffffffffffffffffffffffffffffffff1673ffffffffffffffffffffffffffffffffffffffff1663999de9cc8584846040518463ffffffff1660e01b81526004016115709392919061213f565b600060405180830381600087803b15801561158a57600080fd5b505af115801561159e573d6000803e3d6000fd5b505050506000600360009054906101000a900473ffffffffffffffffffffffffffffffffffffffff1673ffffffffffffffffffffffffffffffffffffffff166370a08231856040518263ffffffff1660e01b81526004016115ff9190611f74565b602060405180830381865afa15801561161c573d6000803e3d6000fd5b505050506040513d601f19601f82011682018060405250810190611640919061237e565b905060008382106116515783611653565b815b9050600360009054906101000a900473ffffffffffffffffffffffffffffffffffffffff1673ffffffffffffffffffffffffffffffffffffffff1663fc673c4f8683866040518463ffffffff1660e01b81526004016116b49392919061213f565b600060405180830381600087803b1580156116ce57600080fd5b505af11580156116e2573d6000803e3d6000fd5b505050506000600360009054906101000a900473ffffffffffffffffffffffffffffffffffffffff1673ffffffffffffffffffffffffffffffffffffffff166370a08231886040518263ffffffff1660e01b81526004016117439190611f74565b602060405180830381865afa158015611760573d6000803e3d6000fd5b505050506040513d601f19601f82011682018060405250810190611784919061237e565b905060008582106117955785611797565b815b9050600360009054906101000a900473ffffffffffffffffffffffffffffffffffffffff1673ffffffffffffffffffffffffffffffffffffffff1663fc673c4f8983886040518463ffffffff1660e01b81526004016117f89392919061213f565b600060405180830381600087803b15801561181257600080fd5b505af1158015611826573d6000803e3d6000fd5b505050508773ffffffffffffffffffffffffffffffffffffffff167f2b0f3cd7d82ba65dc95cc75ef4e3c3d5e49b5ce950b3160ef260c000a9b89da78787604051611872929190612190565b60405180910390a28773ffffffffffffffffffffffffffffffffffffffff167ff2b8ec7e5bb7df2ee7c67ecad21734bd50e4cb1aeb121f2284644e915f867a3b87876040516118c2929190612190565b60405180910390a28673ffffffffffffffffffffffffffffffffffffffff167ff2b8ec7e5bb7df2ee7c67ecad21734bd50e4cb1aeb121f2284644e915f867a3b8787604051611912929190612190565b60405180910390a25050505050505050565b60008060009054906101000a900473ffffffffffffffffffffffffffffffffffffffff169050816000806101000a81548173ffffffffffffffffffffffffffffffffffffffff021916908373ffffffffffffffffffffffffffffffffffffffff1602179055508173ffffffffffffffffffffffffffffffffffffffff168173ffffffffffffffffffffffffffffffffffffffff167f8be0079c531659141344cd1fd0a4f28419497f9722a3daafe3b4186f6b6457e060405160405180910390a35050565b600033905090565b6000604051905090565b600080fd5b600080fd5b600073ffffffffffffffffffffffffffffffffffffffff82169050919050565b6000611a2f82611a04565b9050919050565b611a3f81611a24565b8114611a4a57600080fd5b50565b600081359050611a5c81611a36565b92915050565b6000819050919050565b611a7581611a62565b8114611a8057600080fd5b50565b600081359050611a9281611a6c565b92915050565b600080fd5b600080fd5b6000601f19601f8301169050919050565b7f4e487b7100000000000000000000000000000000000000000000000000000000600052604160045260246000fd5b611aeb82611aa2565b810181811067ffffffffffffffff82111715611b0a57611b09611ab3565b5b80604052505050565b6000611b1d6119f0565b9050611b298282611ae2565b919050565b600067ffffffffffffffff821115611b4957611b48611ab3565b5b611b5282611aa2565b9050602081019050919050565b82818337600083830152505050565b6000611b81611b7c84611b2e565b611b13565b905082815260208101848484011115611b9d57611b9c611a9d565b5b611ba8848285611b5f565b509392505050565b600082601f830112611bc557611bc4611a98565b5b8135611bd5848260208601611b6e565b91505092915050565b600080600060608486031215611bf757611bf66119fa565b5b6000611c0586828701611a4d565b9350506020611c1686828701611a83565b925050604084013567ffffffffffffffff811115611c3757611c366119ff565b5b611c4386828701611bb0565b9150509250925092565b600080fd5b600080fd5b60008083601f840112611c6d57611c6c611a98565b5b8235905067ffffffffffffffff811115611c8a57611c89611c4d565b5b602083019150836020820283011115611ca657611ca5611c52565b5b9250929050565b60008083601f840112611cc357611cc2611a98565b5b8235905067ffffffffffffffff811115611ce057611cdf611c4d565b5b602083019150836020820283011115611cfc57611cfb611c52565b5b9250929050565b60008060008060008060608789031215611d2057611d1f6119fa565b5b600087013567ffffffffffffffff811115611d3e57611d3d6119ff565b5b611d4a89828a01611c57565b9650965050602087013567ffffffffffffffff811115611d6d57611d6c6119ff565b5b611d7989828a01611c57565b9450945050604087013567ffffffffffffffff811115611d9c57611d9b6119ff565b5b611da889828a01611cad565b92509250509295509295509295565b6000819050919050565b6000611ddc611dd7611dd284611a04565b611db7565b611a04565b9050919050565b6000611dee82611dc1565b9050919050565b6000611e0082611de3565b9050919050565b611e1081611df5565b82525050565b6000602082019050611e2b6000830184611e07565b92915050565b6000611e3c82611de3565b9050919050565b611e4c81611e31565b82525050565b6000602082019050611e676000830184611e43565b92915050565b600080600060608486031215611e8657611e856119fa565b5b6000611e9486828701611a4d565b9350506020611ea586828701611a4d565b9250506040611eb686828701611a4d565b9150509250925092565b6000611ecb82611de3565b9050919050565b611edb81611ec0565b82525050565b6000602082019050611ef66000830184611ed2565b92915050565b6000611f0782611de3565b9050919050565b611f1781611efc565b82525050565b6000602082019050611f326000830184611f0e565b92915050565b600060208284031215611f4e57611f4d6119fa565b5b6000611f5c84828501611a4d565b91505092915050565b611f6e81611a24565b82525050565b6000602082019050611f896000830184611f65565b92915050565b6000611f9a82611de3565b9050919050565b611faa81611f8f565b82525050565b6000602082019050611fc56000830184611fa1565b92915050565b611fd481611a62565b82525050565b6000606082019050611fef6000830186611fcb565b611ffc6020830185611fcb565b6120096040830184611fcb565b949350505050565b600061201c82611de3565b9050919050565b61202c81612011565b82525050565b60006020820190506120476000830184612023565b92915050565b60008060208385031215612064576120636119fa565b5b600083013567ffffffffffffffff811115612082576120816119ff565b5b61208e85828601611c57565b92509250509250929050565b600082825260208201905092915050565b50565b60006120bb60008361209a565b91506120c6826120ab565b600082019050919050565b600081519050919050565b60005b838110156120fa5780820151818401526020810190506120df565b60008484015250505050565b6000612111826120d1565b61211b818561209a565b935061212b8185602086016120dc565b61213481611aa2565b840191505092915050565b60006080820190506121546000830186611f65565b6121616020830185611fcb565b8181036040830152612172816120ae565b905081810360608301526121868184612106565b9050949350505050565b60006040820190506121a56000830185611fcb565b81810360208301526121b78184612106565b90509392505050565b600082825260208201905092915050565b7f4572726f723a204d69736d61746368656420617267756d656e74206c656e677460008201527f6800000000000000000000000000000000000000000000000000000000000000602082015250565b600061222d6021836121c0565b9150612238826121d1565b604082019050919050565b6000602082019050818103600083015261225c81612220565b9050919050565b7f4e487b7100000000000000000000000000000000000000000000000000000000600052603260045260246000fd5b60006040820190506122a76000830185611f65565b6122b46020830184611f65565b9392505050565b60006060820190506122d06000830186611f65565b6122dd6020830185611f65565b6122ea6040830184611fcb565b949350505050565b7f4e487b7100000000000000000000000000000000000000000000000000000000600052601160045260246000fd5b600061232c82611a62565b91507fffffffffffffffffffffffffffffffffffffffffffffffffffffffffffffffff820361235e5761235d6122f2565b5b600182019050919050565b60008151905061237881611a6c565b92915050565b600060208284031215612394576123936119fa565b5b60006123a284828501612369565b91505092915050565b600081905092915050565b7f6d656d6265727368697000000000000000000000000000000000000000000000600082015250565b60006123ec600a836123ab565b91506123f7826123b6565b600a82019050919050565b600061240d826123df565b9150819050919050565b6000819050919050565b61242a81612417565b82525050565b60006060820190506124456000830186611f65565b6124526020830185611f65565b61245f6040830184612421565b949350505050565b61247081612417565b811461247b57600080fd5b50565b60008151905061248d81612467565b92915050565b6000602082840312156124a9576124a86119fa565b5b60006124b78482850161247e565b91505092915050565b7f656d706c6f796565000000000000000000000000000000000000000000000000600082015250565b60006124f66008836123ab565b9150612501826124c0565b600882019050919050565b6000612517826124e9565b9150819050919050565b60006060820190506125366000830186611f65565b6125436020830185612421565b6125506040830184611f65565b949350505050565b60008115159050919050565b61256d81612558565b811461257857600080fd5b50565b60008151905061258a81612564565b92915050565b6000602082840312156125a6576125a56119fa565b5b60006125b48482850161257b565b9150509291505056fea264697066735822122097a7b328dd5f84b49a9f339b92a3738f104ef7f85a058f1fa0f21e91a926f5f764736f6c63430008140033",
  "devdoc": {
    "errors": {
      "OwnableInvalidOwner(address)": [
        {
          "details": "The owner is not a valid owner account. (eg. `address(0)`)"
        }
      ],
      "OwnableUnauthorizedAccount(address)": [
        {
          "details": "The caller account is not authorized to perform an operation."
        }
      ]
    },
    "kind": "dev",
    "methods": {
      "owner()": {
        "details": "Returns the address of the current owner."
      },
      "renounceOwnership()": {
        "details": "Leaves the contract without owner. It will not be possible to call `onlyOwner` functions. Can only be called by the current owner. NOTE: Renouncing ownership will leave the contract without an owner, thereby disabling any functionality that is only available to the owner."
      },
      "transferOwnership(address)": {
        "details": "Transfers ownership of the contract to a new account (`newOwner`). Can only be called by the current owner."
      }
    },
    "version": 1
  },
  "userdoc": {
    "kind": "user",
    "methods": {},
    "version": 1
  },
  "storageLayout": {
    "storage": [
      {
        "astId": 8,
        "contract": "contracts/TokenOperator.sol:TokenOperator",
        "label": "_owner",
        "offset": 0,
        "slot": "0",
        "type": "t_address"
      },
      {
        "astId": 4173,
        "contract": "contracts/TokenOperator.sol:TokenOperator",
        "label": "rewardToken",
        "offset": 0,
        "slot": "1",
        "type": "t_contract(RewardToken)3968"
      },
      {
        "astId": 4176,
        "contract": "contracts/TokenOperator.sol:TokenOperator",
        "label": "penaltyToken",
        "offset": 0,
        "slot": "2",
        "type": "t_contract(PenaltyToken)3845"
      },
      {
        "astId": 4179,
        "contract": "contracts/TokenOperator.sol:TokenOperator",
        "label": "reputationToken",
        "offset": 0,
        "slot": "3",
        "type": "t_contract(ReputationToken)3863"
      }
    ],
    "types": {
      "t_address": {
        "encoding": "inplace",
        "label": "address",
        "numberOfBytes": "20"
      },
      "t_contract(PenaltyToken)3845": {
        "encoding": "inplace",
        "label": "contract PenaltyToken",
        "numberOfBytes": "20"
      },
      "t_contract(ReputationToken)3863": {
        "encoding": "inplace",
        "label": "contract ReputationToken",
        "numberOfBytes": "20"
      },
      "t_contract(RewardToken)3968": {
        "encoding": "inplace",
        "label": "contract RewardToken",
        "numberOfBytes": "20"
      }
    }
  }
}